{
  "address": "0x5FbDB2315678afecb367f032d93F642f64180aa3",
  "abi": [
    {
      "inputs": [],
      "stateMutability": "nonpayable",
      "type": "constructor"
    },
    {
      "anonymous": false,
      "inputs": [
        {
          "indexed": true,
          "internalType": "address",
          "name": "owner",
          "type": "address"
        },
        {
          "indexed": true,
          "internalType": "address",
          "name": "spender",
          "type": "address"
        },
        {
          "indexed": false,
          "internalType": "uint256",
          "name": "value",
          "type": "uint256"
        }
      ],
      "name": "Approval",
      "type": "event"
    },
    {
      "anonymous": false,
      "inputs": [
        {
          "indexed": true,
          "internalType": "address",
          "name": "previousOwner",
          "type": "address"
        },
        {
          "indexed": true,
          "internalType": "address",
          "name": "newOwner",
          "type": "address"
        }
      ],
      "name": "OwnershipTransferred",
      "type": "event"
    },
    {
      "anonymous": false,
      "inputs": [
        {
          "indexed": true,
          "internalType": "address",
          "name": "from",
          "type": "address"
        },
        {
          "indexed": true,
          "internalType": "address",
          "name": "to",
          "type": "address"
        },
        {
          "indexed": false,
          "internalType": "uint256",
          "name": "value",
          "type": "uint256"
        }
      ],
      "name": "Transfer",
      "type": "event"
    },
    {
      "stateMutability": "payable",
      "type": "fallback"
    },
    {
      "inputs": [],
      "name": "MAX_SUPPLY_LIMIT",
      "outputs": [
        {
          "internalType": "uint256",
          "name": "",
          "type": "uint256"
        }
      ],
      "stateMutability": "view",
      "type": "function"
    },
    {
      "inputs": [],
      "name": "MIN_TOKEN_TO_MINT",
      "outputs": [
        {
          "internalType": "uint256",
          "name": "",
          "type": "uint256"
        }
      ],
      "stateMutability": "view",
      "type": "function"
    },
    {
      "inputs": [],
      "name": "TOKEN_PRICE",
      "outputs": [
        {
          "internalType": "uint256",
          "name": "",
          "type": "uint256"
        }
      ],
      "stateMutability": "view",
      "type": "function"
    },
    {
      "inputs": [
        {
          "internalType": "address",
          "name": "owner",
          "type": "address"
        },
        {
          "internalType": "address",
          "name": "spender",
          "type": "address"
        }
      ],
      "name": "allowance",
      "outputs": [
        {
          "internalType": "uint256",
          "name": "",
          "type": "uint256"
        }
      ],
      "stateMutability": "view",
      "type": "function"
    },
    {
      "inputs": [
        {
          "internalType": "address",
          "name": "spender",
          "type": "address"
        },
        {
          "internalType": "uint256",
          "name": "amount",
          "type": "uint256"
        }
      ],
      "name": "approve",
      "outputs": [
        {
          "internalType": "bool",
          "name": "",
          "type": "bool"
        }
      ],
      "stateMutability": "nonpayable",
      "type": "function"
    },
    {
      "inputs": [
        {
          "internalType": "address",
          "name": "account",
          "type": "address"
        }
      ],
      "name": "balanceOf",
      "outputs": [
        {
          "internalType": "uint256",
          "name": "",
          "type": "uint256"
        }
      ],
      "stateMutability": "view",
      "type": "function"
    },
    {
      "inputs": [],
      "name": "decimals",
      "outputs": [
        {
          "internalType": "uint8",
          "name": "",
          "type": "uint8"
        }
      ],
      "stateMutability": "view",
      "type": "function"
    },
    {
      "inputs": [
        {
          "internalType": "address",
          "name": "spender",
          "type": "address"
        },
        {
          "internalType": "uint256",
          "name": "subtractedValue",
          "type": "uint256"
        }
      ],
      "name": "decreaseAllowance",
      "outputs": [
        {
          "internalType": "bool",
          "name": "",
          "type": "bool"
        }
      ],
      "stateMutability": "nonpayable",
      "type": "function"
    },
    {
      "inputs": [
        {
          "internalType": "address",
          "name": "spender",
          "type": "address"
        },
        {
          "internalType": "uint256",
          "name": "addedValue",
          "type": "uint256"
        }
      ],
      "name": "increaseAllowance",
      "outputs": [
        {
          "internalType": "bool",
          "name": "",
          "type": "bool"
        }
      ],
      "stateMutability": "nonpayable",
      "type": "function"
    },
    {
      "inputs": [
        {
          "internalType": "uint256",
          "name": "",
          "type": "uint256"
        }
      ],
      "name": "isTokenIdClimed",
      "outputs": [
        {
          "internalType": "bool",
          "name": "",
          "type": "bool"
        }
      ],
      "stateMutability": "view",
      "type": "function"
    },
    {
      "inputs": [
        {
          "internalType": "uint256",
          "name": "amount",
          "type": "uint256"
        }
      ],
      "name": "mint",
      "outputs": [],
      "stateMutability": "payable",
      "type": "function"
    },
    {
      "inputs": [],
      "name": "name",
      "outputs": [
        {
          "internalType": "string",
          "name": "",
          "type": "string"
        }
      ],
      "stateMutability": "view",
      "type": "function"
    },
    {
      "inputs": [],
      "name": "owner",
      "outputs": [
        {
          "internalType": "address",
          "name": "",
          "type": "address"
        }
      ],
      "stateMutability": "view",
      "type": "function"
    },
    {
      "inputs": [],
      "name": "renounceOwnership",
      "outputs": [],
      "stateMutability": "nonpayable",
      "type": "function"
    },
    {
      "inputs": [],
      "name": "symbol",
      "outputs": [
        {
          "internalType": "string",
          "name": "",
          "type": "string"
        }
      ],
      "stateMutability": "view",
      "type": "function"
    },
    {
      "inputs": [],
      "name": "totalSupply",
      "outputs": [
        {
          "internalType": "uint256",
          "name": "",
          "type": "uint256"
        }
      ],
      "stateMutability": "view",
      "type": "function"
    },
    {
      "inputs": [
        {
          "internalType": "address",
          "name": "to",
          "type": "address"
        },
        {
          "internalType": "uint256",
          "name": "amount",
          "type": "uint256"
        }
      ],
      "name": "transfer",
      "outputs": [
        {
          "internalType": "bool",
          "name": "",
          "type": "bool"
        }
      ],
      "stateMutability": "nonpayable",
      "type": "function"
    },
    {
      "inputs": [
        {
          "internalType": "address",
          "name": "from",
          "type": "address"
        },
        {
          "internalType": "address",
          "name": "to",
          "type": "address"
        },
        {
          "internalType": "uint256",
          "name": "amount",
          "type": "uint256"
        }
      ],
      "name": "transferFrom",
      "outputs": [
        {
          "internalType": "bool",
          "name": "",
          "type": "bool"
        }
      ],
      "stateMutability": "nonpayable",
      "type": "function"
    },
    {
      "inputs": [
        {
          "internalType": "address",
          "name": "newOwner",
          "type": "address"
        }
      ],
      "name": "transferOwnership",
      "outputs": [],
      "stateMutability": "nonpayable",
      "type": "function"
    },
    {
      "inputs": [],
      "name": "withdraw",
      "outputs": [],
      "stateMutability": "nonpayable",
      "type": "function"
    },
    {
      "stateMutability": "payable",
      "type": "receive"
    }
  ],
  "transactionHash": "0xcf769c6ef2450d6e618f1ed6bf084bfeeb99c1daa2f048eadd21f7054e6b110d",
  "args": [],
  "numDeployments": 1,
  "solcInputHash": "87d75fa4d32df9dc45ed01aec490baf1",
  "bytecode": "0x60806040523480156200001157600080fd5b506040518060400160405280601081526020017f43727970746f2044657620546f6b656e000000000000000000000000000000008152506040518060400160405280600281526020017f4344000000000000000000000000000000000000000000000000000000000000815250816003908051906020019062000096929190620001a6565b508060049080519060200190620000af929190620001a6565b505050620000d2620000c6620000d860201b60201c565b620000e060201b60201c565b620002bb565b600033905090565b6000600560009054906101000a900473ffffffffffffffffffffffffffffffffffffffff16905081600560006101000a81548173ffffffffffffffffffffffffffffffffffffffff021916908373ffffffffffffffffffffffffffffffffffffffff1602179055508173ffffffffffffffffffffffffffffffffffffffff168173ffffffffffffffffffffffffffffffffffffffff167f8be0079c531659141344cd1fd0a4f28419497f9722a3daafe3b4186f6b6457e060405160405180910390a35050565b828054620001b49062000256565b90600052602060002090601f016020900481019282620001d8576000855562000224565b82601f10620001f357805160ff191683800117855562000224565b8280016001018555821562000224579182015b828111156200022357825182559160200191906001019062000206565b5b50905062000233919062000237565b5090565b5b808211156200025257600081600090555060010162000238565b5090565b600060028204905060018216806200026f57607f821691505b602082108114156200028657620002856200028c565b5b50919050565b7f4e487b7100000000000000000000000000000000000000000000000000000000600052602260045260246000fd5b611e8f80620002cb6000396000f3fe6080604052600436106101235760003560e01c8063715018a6116100a0578063a9059cbb11610064578063a9059cbb146103d4578063d2d8cb6714610411578063dd62ed3e1461043c578063eaa1fecf14610479578063f2fde38b146104b65761012a565b8063715018a61461030e5780638da5cb5b1461032557806395d89b4114610350578063a0712d681461037b578063a457c2d7146103975761012a565b806339509351116100e757806339509351146102275780633ccfd60b146102645780633d185f271461027b578063617d1126146102a657806370a08231146102d15761012a565b806306fdde031461012c578063095ea7b31461015757806318160ddd1461019457806323b872dd146101bf578063313ce567146101fc5761012a565b3661012a57005b005b34801561013857600080fd5b506101416104df565b60405161014e9190611677565b60405180910390f35b34801561016357600080fd5b5061017e6004803603810190610179919061133d565b610571565b60405161018b919061165c565b60405180910390f35b3480156101a057600080fd5b506101a9610594565b6040516101b69190611859565b60405180910390f35b3480156101cb57600080fd5b506101e660048036038101906101e191906112ea565b61059e565b6040516101f3919061165c565b60405180910390f35b34801561020857600080fd5b506102116105cd565b60405161021e9190611874565b60405180910390f35b34801561023357600080fd5b5061024e6004803603810190610249919061133d565b6105d6565b60405161025b919061165c565b60405180910390f35b34801561027057600080fd5b5061027961060d565b005b34801561028757600080fd5b5061029061071a565b60405161029d9190611859565b60405180910390f35b3480156102b257600080fd5b506102bb61071f565b6040516102c89190611859565b60405180910390f35b3480156102dd57600080fd5b506102f860048036038101906102f3919061127d565b61072d565b6040516103059190611859565b60405180910390f35b34801561031a57600080fd5b50610323610775565b005b34801561033157600080fd5b5061033a610789565b6040516103479190611641565b60405180910390f35b34801561035c57600080fd5b506103656107b3565b6040516103729190611677565b60405180910390f35b6103956004803603810190610390919061137d565b610845565b005b3480156103a357600080fd5b506103be60048036038101906103b9919061133d565b610907565b6040516103cb919061165c565b60405180910390f35b3480156103e057600080fd5b506103fb60048036038101906103f6919061133d565b61097e565b604051610408919061165c565b60405180910390f35b34801561041d57600080fd5b506104266109a1565b6040516104339190611859565b60405180910390f35b34801561044857600080fd5b50610463600480360381019061045e91906112aa565b6109ac565b6040516104709190611859565b60405180910390f35b34801561048557600080fd5b506104a0600480360381019061049b919061137d565b610a33565b6040516104ad919061165c565b60405180910390f35b3480156104c257600080fd5b506104dd60048036038101906104d8919061127d565b610a53565b005b6060600380546104ee906119ee565b80601f016020809104026020016040519081016040528092919081815260200182805461051a906119ee565b80156105675780601f1061053c57610100808354040283529160200191610567565b820191906000526020600020905b81548152906001019060200180831161054a57829003601f168201915b5050505050905090565b60008061057c610ad7565b9050610589818585610adf565b600191505092915050565b6000600254905090565b6000806105a9610ad7565b90506105b6858285610caa565b6105c1858585610d36565b60019150509392505050565b60006012905090565b6000806105e1610ad7565b90506106028185856105f385896109ac565b6105fd91906118b6565b610adf565b600191505092915050565b610615610fae565b60004790506000811161065d576040517f08c379a000000000000000000000000000000000000000000000000000000000815260040161065490611799565b60405180910390fd5b6000610667610789565b905060008173ffffffffffffffffffffffffffffffffffffffff168360405161068f9061162c565b60006040518083038185875af1925050503d80600081146106cc576040519150601f19603f3d011682016040523d82523d6000602084013e6106d1565b606091505b5050905080610715576040517f08c379a000000000000000000000000000000000000000000000000000000000815260040161070c90611759565b60405180910390fd5b505050565b600a81565b69021e19e0c9bab240000081565b60008060008373ffffffffffffffffffffffffffffffffffffffff1673ffffffffffffffffffffffffffffffffffffffff168152602001908152602001600020549050919050565b61077d610fae565b610787600061102c565b565b6000600560009054906101000a900473ffffffffffffffffffffffffffffffffffffffff16905090565b6060600480546107c2906119ee565b80601f01602080910402602001604051908101604052809291908181526020018280546107ee906119ee565b801561083b5780601f106108105761010080835404028352916020019161083b565b820191906000526020600020905b81548152906001019060200180831161081e57829003601f168201915b5050505050905090565b600a66038d7ea4c68000610859919061190c565b34101561089b576040517f08c379a0000000000000000000000000000000000000000000000000000000008152600401610892906116b9565b60405180910390fd5b69021e19e0c9bab2400000816108af610594565b6108b991906118b6565b11156108fa576040517f08c379a00000000000000000000000000000000000000000000000000000000081526004016108f1906117b9565b60405180910390fd5b61090433826110f2565b50565b600080610912610ad7565b9050600061092082866109ac565b905083811015610965576040517f08c379a000000000000000000000000000000000000000000000000000000000815260040161095c90611819565b60405180910390fd5b6109728286868403610adf565b60019250505092915050565b600080610989610ad7565b9050610996818585610d36565b600191505092915050565b66038d7ea4c6800081565b6000600160008473ffffffffffffffffffffffffffffffffffffffff1673ffffffffffffffffffffffffffffffffffffffff16815260200190815260200160002060008373ffffffffffffffffffffffffffffffffffffffff1673ffffffffffffffffffffffffffffffffffffffff16815260200190815260200160002054905092915050565b60066020528060005260406000206000915054906101000a900460ff1681565b610a5b610fae565b600073ffffffffffffffffffffffffffffffffffffffff168173ffffffffffffffffffffffffffffffffffffffff161415610acb576040517f08c379a0000000000000000000000000000000000000000000000000000000008152600401610ac2906116d9565b60405180910390fd5b610ad48161102c565b50565b600033905090565b600073ffffffffffffffffffffffffffffffffffffffff168373ffffffffffffffffffffffffffffffffffffffff161415610b4f576040517f08c379a0000000000000000000000000000000000000000000000000000000008152600401610b46906117f9565b60405180910390fd5b600073ffffffffffffffffffffffffffffffffffffffff168273ffffffffffffffffffffffffffffffffffffffff161415610bbf576040517f08c379a0000000000000000000000000000000000000000000000000000000008152600401610bb6906116f9565b60405180910390fd5b80600160008573ffffffffffffffffffffffffffffffffffffffff1673ffffffffffffffffffffffffffffffffffffffff16815260200190815260200160002060008473ffffffffffffffffffffffffffffffffffffffff1673ffffffffffffffffffffffffffffffffffffffff168152602001908152602001600020819055508173ffffffffffffffffffffffffffffffffffffffff168373ffffffffffffffffffffffffffffffffffffffff167f8c5be1e5ebec7d5bd14f71427d1e84f3dd0314c0f7b2291e5b200ac8c7c3b92583604051610c9d9190611859565b60405180910390a3505050565b6000610cb684846109ac565b90507fffffffffffffffffffffffffffffffffffffffffffffffffffffffffffffffff8114610d305781811015610d22576040517f08c379a0000000000000000000000000000000000000000000000000000000008152600401610d1990611719565b60405180910390fd5b610d2f8484848403610adf565b5b50505050565b600073ffffffffffffffffffffffffffffffffffffffff168373ffffffffffffffffffffffffffffffffffffffff161415610da6576040517f08c379a0000000000000000000000000000000000000000000000000000000008152600401610d9d906117d9565b60405180910390fd5b600073ffffffffffffffffffffffffffffffffffffffff168273ffffffffffffffffffffffffffffffffffffffff161415610e16576040517f08c379a0000000000000000000000000000000000000000000000000000000008152600401610e0d90611699565b60405180910390fd5b610e21838383611249565b60008060008573ffffffffffffffffffffffffffffffffffffffff1673ffffffffffffffffffffffffffffffffffffffff16815260200190815260200160002054905081811015610ea7576040517f08c379a0000000000000000000000000000000000000000000000000000000008152600401610e9e90611739565b60405180910390fd5b8181036000808673ffffffffffffffffffffffffffffffffffffffff1673ffffffffffffffffffffffffffffffffffffffff16815260200190815260200160002081905550816000808573ffffffffffffffffffffffffffffffffffffffff1673ffffffffffffffffffffffffffffffffffffffff168152602001908152602001600020600082825401925050819055508273ffffffffffffffffffffffffffffffffffffffff168473ffffffffffffffffffffffffffffffffffffffff167fddf252ad1be2c89b69c2b068fc378daa952ba7f163c4a11628f55a4df523b3ef84604051610f959190611859565b60405180910390a3610fa884848461124e565b50505050565b610fb6610ad7565b73ffffffffffffffffffffffffffffffffffffffff16610fd4610789565b73ffffffffffffffffffffffffffffffffffffffff161461102a576040517f08c379a000000000000000000000000000000000000000000000000000000000815260040161102190611779565b60405180910390fd5b565b6000600560009054906101000a900473ffffffffffffffffffffffffffffffffffffffff16905081600560006101000a81548173ffffffffffffffffffffffffffffffffffffffff021916908373ffffffffffffffffffffffffffffffffffffffff1602179055508173ffffffffffffffffffffffffffffffffffffffff168173ffffffffffffffffffffffffffffffffffffffff167f8be0079c531659141344cd1fd0a4f28419497f9722a3daafe3b4186f6b6457e060405160405180910390a35050565b600073ffffffffffffffffffffffffffffffffffffffff168273ffffffffffffffffffffffffffffffffffffffff161415611162576040517f08c379a000000000000000000000000000000000000000000000000000000000815260040161115990611839565b60405180910390fd5b61116e60008383611249565b806002600082825461118091906118b6565b92505081905550806000808473ffffffffffffffffffffffffffffffffffffffff1673ffffffffffffffffffffffffffffffffffffffff168152602001908152602001600020600082825401925050819055508173ffffffffffffffffffffffffffffffffffffffff16600073ffffffffffffffffffffffffffffffffffffffff167fddf252ad1be2c89b69c2b068fc378daa952ba7f163c4a11628f55a4df523b3ef836040516112319190611859565b60405180910390a36112456000838361124e565b5050565b505050565b505050565b60008135905061126281611e2b565b92915050565b60008135905061127781611e42565b92915050565b60006020828403121561129357611292611a7e565b5b60006112a184828501611253565b91505092915050565b600080604083850312156112c1576112c0611a7e565b5b60006112cf85828601611253565b92505060206112e085828601611253565b9150509250929050565b60008060006060848603121561130357611302611a7e565b5b600061131186828701611253565b935050602061132286828701611253565b925050604061133386828701611268565b9150509250925092565b6000806040838503121561135457611353611a7e565b5b600061136285828601611253565b925050602061137385828601611268565b9150509250929050565b60006020828403121561139357611392611a7e565b5b60006113a184828501611268565b91505092915050565b6113b381611966565b82525050565b6113c281611978565b82525050565b60006113d38261188f565b6113dd81856118a5565b93506113ed8185602086016119bb565b6113f681611a83565b840191505092915050565b600061140e6023836118a5565b915061141982611a94565b604082019050919050565b60006114316015836118a5565b915061143c82611ae3565b602082019050919050565b60006114546026836118a5565b915061145f82611b0c565b604082019050919050565b60006114776022836118a5565b915061148282611b5b565b604082019050919050565b600061149a601d836118a5565b91506114a582611baa565b602082019050919050565b60006114bd6026836118a5565b91506114c882611bd3565b604082019050919050565b60006114e06014836118a5565b91506114eb82611c22565b602082019050919050565b60006115036020836118a5565b915061150e82611c4b565b602082019050919050565b6000611526602b836118a5565b915061153182611c74565b604082019050919050565b60006115496027836118a5565b915061155482611cc3565b604082019050919050565b600061156c6025836118a5565b915061157782611d12565b604082019050919050565b600061158f60008361189a565b915061159a82611d61565b600082019050919050565b60006115b26024836118a5565b91506115bd82611d64565b604082019050919050565b60006115d56025836118a5565b91506115e082611db3565b604082019050919050565b60006115f8601f836118a5565b915061160382611e02565b602082019050919050565b611617816119a4565b82525050565b611626816119ae565b82525050565b600061163782611582565b9150819050919050565b600060208201905061165660008301846113aa565b92915050565b600060208201905061167160008301846113b9565b92915050565b6000602082019050818103600083015261169181846113c8565b905092915050565b600060208201905081810360008301526116b281611401565b9050919050565b600060208201905081810360008301526116d281611424565b9050919050565b600060208201905081810360008301526116f281611447565b9050919050565b600060208201905081810360008301526117128161146a565b9050919050565b600060208201905081810360008301526117328161148d565b9050919050565b60006020820190508181036000830152611752816114b0565b9050919050565b60006020820190508181036000830152611772816114d3565b9050919050565b60006020820190508181036000830152611792816114f6565b9050919050565b600060208201905081810360008301526117b281611519565b9050919050565b600060208201905081810360008301526117d28161153c565b9050919050565b600060208201905081810360008301526117f28161155f565b9050919050565b60006020820190508181036000830152611812816115a5565b9050919050565b60006020820190508181036000830152611832816115c8565b9050919050565b60006020820190508181036000830152611852816115eb565b9050919050565b600060208201905061186e600083018461160e565b92915050565b6000602082019050611889600083018461161d565b92915050565b600081519050919050565b600081905092915050565b600082825260208201905092915050565b60006118c1826119a4565b91506118cc836119a4565b9250827fffffffffffffffffffffffffffffffffffffffffffffffffffffffffffffffff0382111561190157611900611a20565b5b828201905092915050565b6000611917826119a4565b9150611922836119a4565b9250817fffffffffffffffffffffffffffffffffffffffffffffffffffffffffffffffff048311821515161561195b5761195a611a20565b5b828202905092915050565b600061197182611984565b9050919050565b60008115159050919050565b600073ffffffffffffffffffffffffffffffffffffffff82169050919050565b6000819050919050565b600060ff82169050919050565b60005b838110156119d95780820151818401526020810190506119be565b838111156119e8576000848401525b50505050565b60006002820490506001821680611a0657607f821691505b60208210811415611a1a57611a19611a4f565b5b50919050565b7f4e487b7100000000000000000000000000000000000000000000000000000000600052601160045260246000fd5b7f4e487b7100000000000000000000000000000000000000000000000000000000600052602260045260246000fd5b600080fd5b6000601f19601f8301169050919050565b7f45524332303a207472616e7366657220746f20746865207a65726f206164647260008201527f6573730000000000000000000000000000000000000000000000000000000000602082015250565b7f4e6f7420656e6f7567682045746865722073656e740000000000000000000000600082015250565b7f4f776e61626c653a206e6577206f776e657220697320746865207a65726f206160008201527f6464726573730000000000000000000000000000000000000000000000000000602082015250565b7f45524332303a20617070726f766520746f20746865207a65726f20616464726560008201527f7373000000000000000000000000000000000000000000000000000000000000602082015250565b7f45524332303a20696e73756666696369656e7420616c6c6f77616e6365000000600082015250565b7f45524332303a207472616e7366657220616d6f756e742065786365656473206260008201527f616c616e63650000000000000000000000000000000000000000000000000000602082015250565b7f4661696c656420746f2073656e64204574686572000000000000000000000000600082015250565b7f4f776e61626c653a2063616c6c6572206973206e6f7420746865206f776e6572600082015250565b7f4e6f7468696e6720746f2077697468647261772c20636f6e747261637420626160008201527f6c616e636520656d707479000000000000000000000000000000000000000000602082015250565b7f4578636565647320746865206d617820746f74616c20737570706c792061766160008201527f696c61626c652e00000000000000000000000000000000000000000000000000602082015250565b7f45524332303a207472616e736665722066726f6d20746865207a65726f20616460008201527f6472657373000000000000000000000000000000000000000000000000000000602082015250565b50565b7f45524332303a20617070726f76652066726f6d20746865207a65726f2061646460008201527f7265737300000000000000000000000000000000000000000000000000000000602082015250565b7f45524332303a2064656372656173656420616c6c6f77616e63652062656c6f7760008201527f207a65726f000000000000000000000000000000000000000000000000000000602082015250565b7f45524332303a206d696e7420746f20746865207a65726f206164647265737300600082015250565b611e3481611966565b8114611e3f57600080fd5b50565b611e4b816119a4565b8114611e5657600080fd5b5056fea2646970667358221220653e26fe97b204d9768142fcab3a3c6e10b0bcc01df72a3878ffadeb81226cca64736f6c63430008070033",
  "devdoc": {
    "kind": "dev",
    "methods": {
      "allowance(address,address)": {
        "details": "See {IERC20-allowance}."
      },
      "approve(address,uint256)": {
        "details": "See {IERC20-approve}. NOTE: If `amount` is the maximum `uint256`, the allowance is not updated on `transferFrom`. This is semantically equivalent to an infinite approval. Requirements: - `spender` cannot be the zero address."
      },
      "balanceOf(address)": {
        "details": "See {IERC20-balanceOf}."
      },
      "decimals()": {
        "details": "Returns the number of decimals used to get its user representation. For example, if `decimals` equals `2`, a balance of `505` tokens should be displayed to a user as `5.05` (`505 / 10 ** 2`). Tokens usually opt for a value of 18, imitating the relationship between Ether and Wei. This is the value {ERC20} uses, unless this function is overridden; NOTE: This information is only used for _display_ purposes: it in no way affects any of the arithmetic of the contract, including {IERC20-balanceOf} and {IERC20-transfer}."
      },
      "decreaseAllowance(address,uint256)": {
        "details": "Atomically decreases the allowance granted to `spender` by the caller. This is an alternative to {approve} that can be used as a mitigation for problems described in {IERC20-approve}. Emits an {Approval} event indicating the updated allowance. Requirements: - `spender` cannot be the zero address. - `spender` must have allowance for the caller of at least `subtractedValue`."
      },
      "increaseAllowance(address,uint256)": {
        "details": "Atomically increases the allowance granted to `spender` by the caller. This is an alternative to {approve} that can be used as a mitigation for problems described in {IERC20-approve}. Emits an {Approval} event indicating the updated allowance. Requirements: - `spender` cannot be the zero address."
      },
      "name()": {
        "details": "Returns the name of the token."
      },
      "owner()": {
        "details": "Returns the address of the current owner."
      },
      "renounceOwnership()": {
        "details": "Leaves the contract without owner. It will not be possible to call `onlyOwner` functions anymore. Can only be called by the current owner. NOTE: Renouncing ownership will leave the contract without an owner, thereby removing any functionality that is only available to the owner."
      },
      "symbol()": {
        "details": "Returns the symbol of the token, usually a shorter version of the name."
      },
      "totalSupply()": {
        "details": "See {IERC20-totalSupply}."
      },
      "transfer(address,uint256)": {
        "details": "See {IERC20-transfer}. Requirements: - `to` cannot be the zero address. - the caller must have a balance of at least `amount`."
      },
      "transferFrom(address,address,uint256)": {
        "details": "See {IERC20-transferFrom}. Emits an {Approval} event indicating the updated allowance. This is not required by the EIP. See the note at the beginning of {ERC20}. NOTE: Does not update the allowance if the current allowance is the maximum `uint256`. Requirements: - `from` and `to` cannot be the zero address. - `from` must have a balance of at least `amount`. - the caller must have allowance for ``from``'s tokens of at least `amount`."
      },
      "transferOwnership(address)": {
        "details": "Transfers ownership of the contract to a new account (`newOwner`). Can only be called by the current owner."
      }
    },
    "version": 1
  },
  "userdoc": {
    "kind": "user",
    "methods": {},
    "version": 1
  },
  "storageLayout": {
    "storage": [
      {
        "astId": 128,
        "contract": "contracts/CryptoDevToken.sol:CryptoDevToken",
        "label": "_balances",
        "offset": 0,
        "slot": "0",
        "type": "t_mapping(t_address,t_uint256)"
      },
      {
        "astId": 134,
        "contract": "contracts/CryptoDevToken.sol:CryptoDevToken",
        "label": "_allowances",
        "offset": 0,
        "slot": "1",
        "type": "t_mapping(t_address,t_mapping(t_address,t_uint256))"
      },
      {
        "astId": 136,
        "contract": "contracts/CryptoDevToken.sol:CryptoDevToken",
        "label": "_totalSupply",
        "offset": 0,
        "slot": "2",
        "type": "t_uint256"
      },
      {
        "astId": 138,
        "contract": "contracts/CryptoDevToken.sol:CryptoDevToken",
        "label": "_name",
        "offset": 0,
        "slot": "3",
        "type": "t_string_storage"
      },
      {
        "astId": 140,
        "contract": "contracts/CryptoDevToken.sol:CryptoDevToken",
        "label": "_symbol",
        "offset": 0,
        "slot": "4",
        "type": "t_string_storage"
      },
      {
        "astId": 7,
        "contract": "contracts/CryptoDevToken.sol:CryptoDevToken",
        "label": "_owner",
        "offset": 0,
        "slot": "5",
        "type": "t_address"
      },
      {
        "astId": 849,
        "contract": "contracts/CryptoDevToken.sol:CryptoDevToken",
        "label": "isTokenIdClimed",
        "offset": 0,
        "slot": "6",
        "type": "t_mapping(t_uint256,t_bool)"
      }
    ],
    "types": {
      "t_address": {
        "encoding": "inplace",
        "label": "address",
        "numberOfBytes": "20"
      },
      "t_bool": {
        "encoding": "inplace",
        "label": "bool",
        "numberOfBytes": "1"
      },
      "t_mapping(t_address,t_mapping(t_address,t_uint256))": {
        "encoding": "mapping",
        "key": "t_address",
        "label": "mapping(address => mapping(address => uint256))",
        "numberOfBytes": "32",
        "value": "t_mapping(t_address,t_uint256)"
      },
      "t_mapping(t_address,t_uint256)": {
        "encoding": "mapping",
        "key": "t_address",
        "label": "mapping(address => uint256)",
        "numberOfBytes": "32",
        "value": "t_uint256"
      },
      "t_mapping(t_uint256,t_bool)": {
        "encoding": "mapping",
        "key": "t_uint256",
        "label": "mapping(uint256 => bool)",
        "numberOfBytes": "32",
        "value": "t_bool"
      },
      "t_string_storage": {
        "encoding": "bytes",
        "label": "string",
        "numberOfBytes": "32"
      },
      "t_uint256": {
        "encoding": "inplace",
        "label": "uint256",
        "numberOfBytes": "32"
      }
    }
  }
}