{
  "address": "0xe7f1725E7734CE288F8367e1Bb143E90bb3F0512",
  "abi": [
    {
      "inputs": [
        {
          "internalType": "address",
          "name": "_CryptoDevtoken",
          "type": "address"
        }
      ],
      "stateMutability": "nonpayable",
      "type": "constructor"
    },
    {
      "anonymous": false,
      "inputs": [
        {
          "indexed": true,
          "internalType": "address",
          "name": "owner",
          "type": "address"
        },
        {
          "indexed": true,
          "internalType": "address",
          "name": "spender",
          "type": "address"
        },
        {
          "indexed": false,
          "internalType": "uint256",
          "name": "value",
          "type": "uint256"
        }
      ],
      "name": "Approval",
      "type": "event"
    },
    {
      "anonymous": false,
      "inputs": [
        {
          "indexed": false,
          "internalType": "uint256",
          "name": "ethAmount",
          "type": "uint256"
        },
        {
          "indexed": false,
          "internalType": "uint256",
          "name": "CDAmount",
          "type": "uint256"
        }
      ],
      "name": "LiquidityAdded",
      "type": "event"
    },
    {
      "anonymous": false,
      "inputs": [
        {
          "indexed": false,
          "internalType": "uint256",
          "name": "ethAmount",
          "type": "uint256"
        },
        {
          "indexed": false,
          "internalType": "uint256",
          "name": "CDAmount",
          "type": "uint256"
        }
      ],
      "name": "LiquidityRemoved",
      "type": "event"
    },
    {
      "anonymous": false,
      "inputs": [
        {
          "indexed": true,
          "internalType": "address",
          "name": "from",
          "type": "address"
        },
        {
          "indexed": true,
          "internalType": "address",
          "name": "to",
          "type": "address"
        },
        {
          "indexed": false,
          "internalType": "uint256",
          "name": "value",
          "type": "uint256"
        }
      ],
      "name": "Transfer",
      "type": "event"
    },
    {
      "inputs": [
        {
          "internalType": "uint256",
          "name": "_amount",
          "type": "uint256"
        }
      ],
      "name": "addLiquidity",
      "outputs": [
        {
          "internalType": "uint256",
          "name": "",
          "type": "uint256"
        }
      ],
      "stateMutability": "payable",
      "type": "function"
    },
    {
      "inputs": [
        {
          "internalType": "address",
          "name": "owner",
          "type": "address"
        },
        {
          "internalType": "address",
          "name": "spender",
          "type": "address"
        }
      ],
      "name": "allowance",
      "outputs": [
        {
          "internalType": "uint256",
          "name": "",
          "type": "uint256"
        }
      ],
      "stateMutability": "view",
      "type": "function"
    },
    {
      "inputs": [
        {
          "internalType": "address",
          "name": "spender",
          "type": "address"
        },
        {
          "internalType": "uint256",
          "name": "amount",
          "type": "uint256"
        }
      ],
      "name": "approve",
      "outputs": [
        {
          "internalType": "bool",
          "name": "",
          "type": "bool"
        }
      ],
      "stateMutability": "nonpayable",
      "type": "function"
    },
    {
      "inputs": [
        {
          "internalType": "address",
          "name": "account",
          "type": "address"
        }
      ],
      "name": "balanceOf",
      "outputs": [
        {
          "internalType": "uint256",
          "name": "",
          "type": "uint256"
        }
      ],
      "stateMutability": "view",
      "type": "function"
    },
    {
      "inputs": [
        {
          "internalType": "uint256",
          "name": "_tokenSold",
          "type": "uint256"
        },
        {
          "internalType": "uint256",
          "name": "_minEth",
          "type": "uint256"
        }
      ],
      "name": "cryptoDevToEth",
      "outputs": [],
      "stateMutability": "nonpayable",
      "type": "function"
    },
    {
      "inputs": [],
      "name": "decimals",
      "outputs": [
        {
          "internalType": "uint8",
          "name": "",
          "type": "uint8"
        }
      ],
      "stateMutability": "view",
      "type": "function"
    },
    {
      "inputs": [
        {
          "internalType": "address",
          "name": "spender",
          "type": "address"
        },
        {
          "internalType": "uint256",
          "name": "subtractedValue",
          "type": "uint256"
        }
      ],
      "name": "decreaseAllowance",
      "outputs": [
        {
          "internalType": "bool",
          "name": "",
          "type": "bool"
        }
      ],
      "stateMutability": "nonpayable",
      "type": "function"
    },
    {
      "inputs": [
        {
          "internalType": "uint256",
          "name": "_minTokens",
          "type": "uint256"
        }
      ],
      "name": "ethToCryptoDev",
      "outputs": [],
      "stateMutability": "payable",
      "type": "function"
    },
    {
      "inputs": [
        {
          "internalType": "uint256",
          "name": "inputAmount",
          "type": "uint256"
        },
        {
          "internalType": "uint256",
          "name": "inputReserve",
          "type": "uint256"
        },
        {
          "internalType": "uint256",
          "name": "outputReserve",
          "type": "uint256"
        }
      ],
      "name": "getAmountOfToken",
      "outputs": [
        {
          "internalType": "uint256",
          "name": "",
          "type": "uint256"
        }
      ],
      "stateMutability": "pure",
      "type": "function"
    },
    {
      "inputs": [],
      "name": "getReserve",
      "outputs": [
        {
          "internalType": "uint256",
          "name": "",
          "type": "uint256"
        }
      ],
      "stateMutability": "view",
      "type": "function"
    },
    {
      "inputs": [
        {
          "internalType": "address",
          "name": "spender",
          "type": "address"
        },
        {
          "internalType": "uint256",
          "name": "addedValue",
          "type": "uint256"
        }
      ],
      "name": "increaseAllowance",
      "outputs": [
        {
          "internalType": "bool",
          "name": "",
          "type": "bool"
        }
      ],
      "stateMutability": "nonpayable",
      "type": "function"
    },
    {
      "inputs": [],
      "name": "name",
      "outputs": [
        {
          "internalType": "string",
          "name": "",
          "type": "string"
        }
      ],
      "stateMutability": "view",
      "type": "function"
    },
    {
      "inputs": [
        {
          "internalType": "uint256",
          "name": "_amount",
          "type": "uint256"
        }
      ],
      "name": "removeLiquidity",
      "outputs": [
        {
          "internalType": "uint256",
          "name": "",
          "type": "uint256"
        },
        {
          "internalType": "uint256",
          "name": "",
          "type": "uint256"
        }
      ],
      "stateMutability": "nonpayable",
      "type": "function"
    },
    {
      "inputs": [],
      "name": "symbol",
      "outputs": [
        {
          "internalType": "string",
          "name": "",
          "type": "string"
        }
      ],
      "stateMutability": "view",
      "type": "function"
    },
    {
      "inputs": [],
      "name": "totalSupply",
      "outputs": [
        {
          "internalType": "uint256",
          "name": "",
          "type": "uint256"
        }
      ],
      "stateMutability": "view",
      "type": "function"
    },
    {
      "inputs": [
        {
          "internalType": "address",
          "name": "to",
          "type": "address"
        },
        {
          "internalType": "uint256",
          "name": "amount",
          "type": "uint256"
        }
      ],
      "name": "transfer",
      "outputs": [
        {
          "internalType": "bool",
          "name": "",
          "type": "bool"
        }
      ],
      "stateMutability": "nonpayable",
      "type": "function"
    },
    {
      "inputs": [
        {
          "internalType": "address",
          "name": "from",
          "type": "address"
        },
        {
          "internalType": "address",
          "name": "to",
          "type": "address"
        },
        {
          "internalType": "uint256",
          "name": "amount",
          "type": "uint256"
        }
      ],
      "name": "transferFrom",
      "outputs": [
        {
          "internalType": "bool",
          "name": "",
          "type": "bool"
        }
      ],
      "stateMutability": "nonpayable",
      "type": "function"
    }
  ],
  "transactionHash": "0x0a169ea8e4d2507395be02571964870dbcef9f903a3c24dc2dd6e7dbf3434e6d",
  "args": [
    "0x5FbDB2315678afecb367f032d93F642f64180aa3"
  ],
  "numDeployments": 1,
  "solcInputHash": "0777228b0f11c9c164e177a6f22fa873",
  "bytecode": "0x60806040523480156200001157600080fd5b5060405162002b8438038062002b84833981810160405281019062000037919062000259565b6040518060400160405280601281526020017f43727970746f446576204c5020546f6b656e00000000000000000000000000008152506040518060400160405280600481526020017f43444c50000000000000000000000000000000000000000000000000000000008152508160039080519060200190620000bb92919062000192565b508060049080519060200190620000d492919062000192565b505050600073ffffffffffffffffffffffffffffffffffffffff168173ffffffffffffffffffffffffffffffffffffffff1614156200014a576040517f08c379a00000000000000000000000000000000000000000000000000000000081526004016200014190620002b2565b60405180910390fd5b80600560006101000a81548173ffffffffffffffffffffffffffffffffffffffff021916908373ffffffffffffffffffffffffffffffffffffffff16021790555050620003ec565b828054620001a09062000319565b90600052602060002090601f016020900481019282620001c4576000855562000210565b82601f10620001df57805160ff191683800117855562000210565b8280016001018555821562000210579182015b828111156200020f578251825591602001919060010190620001f2565b5b5090506200021f919062000223565b5090565b5b808211156200023e57600081600090555060010162000224565b5090565b6000815190506200025381620003d2565b92915050565b6000602082840312156200027257620002716200037e565b5b6000620002828482850162000242565b91505092915050565b60006200029a602683620002d4565b9150620002a78262000383565b604082019050919050565b60006020820190508181036000830152620002cd816200028b565b9050919050565b600082825260208201905092915050565b6000620002f282620002f9565b9050919050565b600073ffffffffffffffffffffffffffffffffffffffff82169050919050565b600060028204905060018216806200033257607f821691505b602082108114156200034957620003486200034f565b5b50919050565b7f4e487b7100000000000000000000000000000000000000000000000000000000600052602260045260246000fd5b600080fd5b7f546f6b656e2061646472657373207061737365642069732061206e756c6c206160008201527f6464726573730000000000000000000000000000000000000000000000000000602082015250565b620003dd81620002e5565b8114620003e957600080fd5b50565b61278880620003fc6000396000f3fe6080604052600436106100fe5760003560e01c806360bf9d25116100955780639c8f9f23116100645780639c8f9f2314610343578063a457c2d714610381578063a9059cbb146103be578063dd62ed3e146103fb578063e256238814610438576100fe565b806360bf9d251461029657806370a08231146102bf57806389abe242146102fc57806395d89b4114610318576100fe565b8063313ce567116100d1578063313ce567146101d357806339509351146101fe57806351c6590a1461023b57806359bf5d391461026b576100fe565b806306fdde0314610103578063095ea7b31461012e57806318160ddd1461016b57806323b872dd14610196575b600080fd5b34801561010f57600080fd5b50610118610475565b6040516101259190611e2d565b60405180910390f35b34801561013a57600080fd5b5061015560048036038101906101509190611983565b610507565b6040516101629190611e12565b60405180910390f35b34801561017757600080fd5b5061018061052a565b60405161018d919061202f565b60405180910390f35b3480156101a257600080fd5b506101bd60048036038101906101b89190611930565b610534565b6040516101ca9190611e12565b60405180910390f35b3480156101df57600080fd5b506101e8610563565b6040516101f59190612073565b60405180910390f35b34801561020a57600080fd5b5061022560048036038101906102209190611983565b61056c565b6040516102329190611e12565b60405180910390f35b610255600480360381019061025091906119f0565b6105a3565b604051610262919061202f565b60405180910390f35b34801561027757600080fd5b506102806107f9565b60405161028d919061202f565b60405180910390f35b3480156102a257600080fd5b506102bd60048036038101906102b89190611a4a565b6108ab565b005b3480156102cb57600080fd5b506102e660048036038101906102e191906118c3565b610a68565b6040516102f3919061202f565b60405180910390f35b610316600480360381019061031191906119f0565b610ab0565b005b34801561032457600080fd5b5061032d610bce565b60405161033a9190611e2d565b60405180910390f35b34801561034f57600080fd5b5061036a600480360381019061036591906119f0565b610c60565b60405161037892919061204a565b60405180910390f35b34801561038d57600080fd5b506103a860048036038101906103a39190611983565b610ea3565b6040516103b59190611e12565b60405180910390f35b3480156103ca57600080fd5b506103e560048036038101906103e09190611983565b610f1a565b6040516103f29190611e12565b60405180910390f35b34801561040757600080fd5b50610422600480360381019061041d91906118f0565b610f3d565b60405161042f919061202f565b60405180910390f35b34801561044457600080fd5b5061045f600480360381019061045a9190611a8a565b610fc4565b60405161046c919061202f565b60405180910390f35b60606003805461048490612252565b80601f01602080910402602001604051908101604052809291908181526020018280546104b090612252565b80156104fd5780601f106104d2576101008083540402835291602001916104fd565b820191906000526020600020905b8154815290600101906020018083116104e057829003601f168201915b5050505050905090565b600080610512611069565b905061051f818585611071565b600191505092915050565b6000600254905090565b60008061053f611069565b905061054c85828561123c565b6105578585856112c8565b60019150509392505050565b60006012905090565b600080610577611069565b90506105988185856105898589610f3d565b61059391906120b5565b611071565b600191505092915050565b600080600047905060006105b56107f9565b90506000600560009054906101000a900473ffffffffffffffffffffffffffffffffffffffff1690506000821415610689578073ffffffffffffffffffffffffffffffffffffffff166323b872dd3330896040518463ffffffff1660e01b815260040161062493929190611db2565b602060405180830381600087803b15801561063e57600080fd5b505af1158015610652573d6000803e3d6000fd5b505050506040513d601f19601f8201168201806040525081019061067691906119c3565b508293506106843385611540565b6107b4565b600034846106979190612196565b905060008134856106a8919061213c565b6106b2919061210b565b9050808810156106f7576040517f08c379a00000000000000000000000000000000000000000000000000000000081526004016106ee90611e8f565b60405180910390fd5b8273ffffffffffffffffffffffffffffffffffffffff166323b872dd33308b6040518463ffffffff1660e01b815260040161073493929190611db2565b602060405180830381600087803b15801561074e57600080fd5b505af1158015610762573d6000803e3d6000fd5b505050506040513d601f19601f8201168201806040525081019061078691906119c3565b50813461079161052a565b61079b919061213c565b6107a5919061210b565b95506107b13387611540565b50505b7f38f8a0c92f4c5b0b6877f878cb4c0c8d348a47b76d716c8e78f425043df9515b34876040516107e592919061204a565b60405180910390a183945050505050919050565b6000600560009054906101000a900473ffffffffffffffffffffffffffffffffffffffff1673ffffffffffffffffffffffffffffffffffffffff166370a08231306040518263ffffffff1660e01b81526004016108569190611d97565b60206040518083038186803b15801561086e57600080fd5b505afa158015610882573d6000803e3d6000fd5b505050506040513d601f19601f820116820180604052508101906108a69190611a1d565b905090565b60006108bf836108b96107f9565b47610fc4565b905081811015610904576040517f08c379a00000000000000000000000000000000000000000000000000000000081526004016108fb90611f6f565b60405180910390fd5b600560009054906101000a900473ffffffffffffffffffffffffffffffffffffffff1673ffffffffffffffffffffffffffffffffffffffff166323b872dd3330866040518463ffffffff1660e01b815260040161096393929190611db2565b602060405180830381600087803b15801561097d57600080fd5b505af1158015610991573d6000803e3d6000fd5b505050506040513d601f19601f820116820180604052508101906109b591906119c3565b5060003373ffffffffffffffffffffffffffffffffffffffff16826040516109dc90611d82565b60006040518083038185875af1925050503d8060008114610a19576040519150601f19603f3d011682016040523d82523d6000602084013e610a1e565b606091505b5050905080610a62576040517f08c379a0000000000000000000000000000000000000000000000000000000008152600401610a5990611faf565b60405180910390fd5b50505050565b60008060008373ffffffffffffffffffffffffffffffffffffffff1673ffffffffffffffffffffffffffffffffffffffff168152602001908152602001600020549050919050565b6000610aba6107f9565b90506000610ad4343447610ace9190612196565b84610fc4565b905082811015610b19576040517f08c379a0000000000000000000000000000000000000000000000000000000008152600401610b1090611f6f565b60405180910390fd5b600560009054906101000a900473ffffffffffffffffffffffffffffffffffffffff1673ffffffffffffffffffffffffffffffffffffffff1663a9059cbb33836040518363ffffffff1660e01b8152600401610b76929190611de9565b602060405180830381600087803b158015610b9057600080fd5b505af1158015610ba4573d6000803e3d6000fd5b505050506040513d601f19601f82011682018060405250810190610bc891906119c3565b50505050565b606060048054610bdd90612252565b80601f0160208091040260200160405190810160405280929190818152602001828054610c0990612252565b8015610c565780601f10610c2b57610100808354040283529160200191610c56565b820191906000526020600020905b815481529060010190602001808311610c3957829003601f168201915b5050505050905090565b60008060008311610ca6576040517f08c379a0000000000000000000000000000000000000000000000000000000008152600401610c9d90611e6f565b60405180910390fd5b60004790506000610cb561052a565b90506000818387610cc6919061213c565b610cd0919061210b565b905060008287610cde6107f9565b610ce8919061213c565b610cf2919061210b565b9050610cfe3388611697565b60003373ffffffffffffffffffffffffffffffffffffffff1683604051610d2490611d82565b60006040518083038185875af1925050503d8060008114610d61576040519150601f19603f3d011682016040523d82523d6000602084013e610d66565b606091505b5050905080610daa576040517f08c379a0000000000000000000000000000000000000000000000000000000008152600401610da190611faf565b60405180910390fd5b600560009054906101000a900473ffffffffffffffffffffffffffffffffffffffff1673ffffffffffffffffffffffffffffffffffffffff1663a9059cbb33846040518363ffffffff1660e01b8152600401610e07929190611de9565b602060405180830381600087803b158015610e2157600080fd5b505af1158015610e35573d6000803e3d6000fd5b505050506040513d601f19601f82011682018060405250810190610e5991906119c3565b507f6f0f96292ae0038c04f9b6bab30f185d9ca02c471d0983f563f2a4f674aef1378383604051610e8b92919061204a565b60405180910390a18282965096505050505050915091565b600080610eae611069565b90506000610ebc8286610f3d565b905083811015610f01576040517f08c379a0000000000000000000000000000000000000000000000000000000008152600401610ef890611fef565b60405180910390fd5b610f0e8286868403611071565b60019250505092915050565b600080610f25611069565b9050610f328185856112c8565b600191505092915050565b6000600160008473ffffffffffffffffffffffffffffffffffffffff1673ffffffffffffffffffffffffffffffffffffffff16815260200190815260200160002060008373ffffffffffffffffffffffffffffffffffffffff1673ffffffffffffffffffffffffffffffffffffffff16815260200190815260200160002054905092915050565b60008083118015610fd55750600082115b611014576040517f08c379a000000000000000000000000000000000000000000000000000000000815260040161100b90611f2f565b60405180910390fd5b6000606385611023919061213c565b905060008382611033919061213c565b9050600082606487611045919061213c565b61104f91906120b5565b9050808261105d919061210b565b93505050509392505050565b600033905090565b600073ffffffffffffffffffffffffffffffffffffffff168373ffffffffffffffffffffffffffffffffffffffff1614156110e1576040517f08c379a00000000000000000000000000000000000000000000000000000000081526004016110d890611fcf565b60405180910390fd5b600073ffffffffffffffffffffffffffffffffffffffff168273ffffffffffffffffffffffffffffffffffffffff161415611151576040517f08c379a000000000000000000000000000000000000000000000000000000000815260040161114890611ecf565b60405180910390fd5b80600160008573ffffffffffffffffffffffffffffffffffffffff1673ffffffffffffffffffffffffffffffffffffffff16815260200190815260200160002060008473ffffffffffffffffffffffffffffffffffffffff1673ffffffffffffffffffffffffffffffffffffffff168152602001908152602001600020819055508173ffffffffffffffffffffffffffffffffffffffff168373ffffffffffffffffffffffffffffffffffffffff167f8c5be1e5ebec7d5bd14f71427d1e84f3dd0314c0f7b2291e5b200ac8c7c3b9258360405161122f919061202f565b60405180910390a3505050565b60006112488484610f3d565b90507fffffffffffffffffffffffffffffffffffffffffffffffffffffffffffffffff81146112c257818110156112b4576040517f08c379a00000000000000000000000000000000000000000000000000000000081526004016112ab90611eef565b60405180910390fd5b6112c18484848403611071565b5b50505050565b600073ffffffffffffffffffffffffffffffffffffffff168373ffffffffffffffffffffffffffffffffffffffff161415611338576040517f08c379a000000000000000000000000000000000000000000000000000000000815260040161132f90611f8f565b60405180910390fd5b600073ffffffffffffffffffffffffffffffffffffffff168273ffffffffffffffffffffffffffffffffffffffff1614156113a8576040517f08c379a000000000000000000000000000000000000000000000000000000000815260040161139f90611e4f565b60405180910390fd5b6113b3838383611865565b60008060008573ffffffffffffffffffffffffffffffffffffffff1673ffffffffffffffffffffffffffffffffffffffff16815260200190815260200160002054905081811015611439576040517f08c379a000000000000000000000000000000000000000000000000000000000815260040161143090611f0f565b60405180910390fd5b8181036000808673ffffffffffffffffffffffffffffffffffffffff1673ffffffffffffffffffffffffffffffffffffffff16815260200190815260200160002081905550816000808573ffffffffffffffffffffffffffffffffffffffff1673ffffffffffffffffffffffffffffffffffffffff168152602001908152602001600020600082825401925050819055508273ffffffffffffffffffffffffffffffffffffffff168473ffffffffffffffffffffffffffffffffffffffff167fddf252ad1be2c89b69c2b068fc378daa952ba7f163c4a11628f55a4df523b3ef84604051611527919061202f565b60405180910390a361153a84848461186a565b50505050565b600073ffffffffffffffffffffffffffffffffffffffff168273ffffffffffffffffffffffffffffffffffffffff1614156115b0576040517f08c379a00000000000000000000000000000000000000000000000000000000081526004016115a79061200f565b60405180910390fd5b6115bc60008383611865565b80600260008282546115ce91906120b5565b92505081905550806000808473ffffffffffffffffffffffffffffffffffffffff1673ffffffffffffffffffffffffffffffffffffffff168152602001908152602001600020600082825401925050819055508173ffffffffffffffffffffffffffffffffffffffff16600073ffffffffffffffffffffffffffffffffffffffff167fddf252ad1be2c89b69c2b068fc378daa952ba7f163c4a11628f55a4df523b3ef8360405161167f919061202f565b60405180910390a36116936000838361186a565b5050565b600073ffffffffffffffffffffffffffffffffffffffff168273ffffffffffffffffffffffffffffffffffffffff161415611707576040517f08c379a00000000000000000000000000000000000000000000000000000000081526004016116fe90611f4f565b60405180910390fd5b61171382600083611865565b60008060008473ffffffffffffffffffffffffffffffffffffffff1673ffffffffffffffffffffffffffffffffffffffff16815260200190815260200160002054905081811015611799576040517f08c379a000000000000000000000000000000000000000000000000000000000815260040161179090611eaf565b60405180910390fd5b8181036000808573ffffffffffffffffffffffffffffffffffffffff1673ffffffffffffffffffffffffffffffffffffffff1681526020019081526020016000208190555081600260008282540392505081905550600073ffffffffffffffffffffffffffffffffffffffff168373ffffffffffffffffffffffffffffffffffffffff167fddf252ad1be2c89b69c2b068fc378daa952ba7f163c4a11628f55a4df523b3ef8460405161184c919061202f565b60405180910390a36118608360008461186a565b505050565b505050565b505050565b60008135905061187e8161270d565b92915050565b60008151905061189381612724565b92915050565b6000813590506118a88161273b565b92915050565b6000815190506118bd8161273b565b92915050565b6000602082840312156118d9576118d8612311565b5b60006118e78482850161186f565b91505092915050565b6000806040838503121561190757611906612311565b5b60006119158582860161186f565b92505060206119268582860161186f565b9150509250929050565b60008060006060848603121561194957611948612311565b5b60006119578682870161186f565b93505060206119688682870161186f565b925050604061197986828701611899565b9150509250925092565b6000806040838503121561199a57611999612311565b5b60006119a88582860161186f565b92505060206119b985828601611899565b9150509250929050565b6000602082840312156119d9576119d8612311565b5b60006119e784828501611884565b91505092915050565b600060208284031215611a0657611a05612311565b5b6000611a1484828501611899565b91505092915050565b600060208284031215611a3357611a32612311565b5b6000611a41848285016118ae565b91505092915050565b60008060408385031215611a6157611a60612311565b5b6000611a6f85828601611899565b9250506020611a8085828601611899565b9150509250929050565b600080600060608486031215611aa357611aa2612311565b5b6000611ab186828701611899565b9350506020611ac286828701611899565b9250506040611ad386828701611899565b9150509250925092565b611ae6816121ca565b82525050565b611af5816121dc565b82525050565b6000611b068261208e565b611b1081856120a4565b9350611b2081856020860161221f565b611b2981612316565b840191505092915050565b6000611b416023836120a4565b9150611b4c82612327565b604082019050919050565b6000611b646026836120a4565b9150611b6f82612376565b604082019050919050565b6000611b87603b836120a4565b9150611b92826123c5565b604082019050919050565b6000611baa6022836120a4565b9150611bb582612414565b604082019050919050565b6000611bcd6022836120a4565b9150611bd882612463565b604082019050919050565b6000611bf0601d836120a4565b9150611bfb826124b2565b602082019050919050565b6000611c136026836120a4565b9150611c1e826124db565b604082019050919050565b6000611c36600f836120a4565b9150611c418261252a565b602082019050919050565b6000611c596021836120a4565b9150611c6482612553565b604082019050919050565b6000611c7c601a836120a4565b9150611c87826125a2565b602082019050919050565b6000611c9f6025836120a4565b9150611caa826125cb565b604082019050919050565b6000611cc26012836120a4565b9150611ccd8261261a565b602082019050919050565b6000611ce5600083612099565b9150611cf082612643565b600082019050919050565b6000611d086024836120a4565b9150611d1382612646565b604082019050919050565b6000611d2b6025836120a4565b9150611d3682612695565b604082019050919050565b6000611d4e601f836120a4565b9150611d59826126e4565b602082019050919050565b611d6d81612208565b82525050565b611d7c81612212565b82525050565b6000611d8d82611cd8565b9150819050919050565b6000602082019050611dac6000830184611add565b92915050565b6000606082019050611dc76000830186611add565b611dd46020830185611add565b611de16040830184611d64565b949350505050565b6000604082019050611dfe6000830185611add565b611e0b6020830184611d64565b9392505050565b6000602082019050611e276000830184611aec565b92915050565b60006020820190508181036000830152611e478184611afb565b905092915050565b60006020820190508181036000830152611e6881611b34565b9050919050565b60006020820190508181036000830152611e8881611b57565b9050919050565b60006020820190508181036000830152611ea881611b7a565b9050919050565b60006020820190508181036000830152611ec881611b9d565b9050919050565b60006020820190508181036000830152611ee881611bc0565b9050919050565b60006020820190508181036000830152611f0881611be3565b9050919050565b60006020820190508181036000830152611f2881611c06565b9050919050565b60006020820190508181036000830152611f4881611c29565b9050919050565b60006020820190508181036000830152611f6881611c4c565b9050919050565b60006020820190508181036000830152611f8881611c6f565b9050919050565b60006020820190508181036000830152611fa881611c92565b9050919050565b60006020820190508181036000830152611fc881611cb5565b9050919050565b60006020820190508181036000830152611fe881611cfb565b9050919050565b6000602082019050818103600083015261200881611d1e565b9050919050565b6000602082019050818103600083015261202881611d41565b9050919050565b60006020820190506120446000830184611d64565b92915050565b600060408201905061205f6000830185611d64565b61206c6020830184611d64565b9392505050565b60006020820190506120886000830184611d73565b92915050565b600081519050919050565b600081905092915050565b600082825260208201905092915050565b60006120c082612208565b91506120cb83612208565b9250827fffffffffffffffffffffffffffffffffffffffffffffffffffffffffffffffff03821115612100576120ff612284565b5b828201905092915050565b600061211682612208565b915061212183612208565b925082612131576121306122b3565b5b828204905092915050565b600061214782612208565b915061215283612208565b9250817fffffffffffffffffffffffffffffffffffffffffffffffffffffffffffffffff048311821515161561218b5761218a612284565b5b828202905092915050565b60006121a182612208565b91506121ac83612208565b9250828210156121bf576121be612284565b5b828203905092915050565b60006121d5826121e8565b9050919050565b60008115159050919050565b600073ffffffffffffffffffffffffffffffffffffffff82169050919050565b6000819050919050565b600060ff82169050919050565b60005b8381101561223d578082015181840152602081019050612222565b8381111561224c576000848401525b50505050565b6000600282049050600182168061226a57607f821691505b6020821081141561227e5761227d6122e2565b5b50919050565b7f4e487b7100000000000000000000000000000000000000000000000000000000600052601160045260246000fd5b7f4e487b7100000000000000000000000000000000000000000000000000000000600052601260045260246000fd5b7f4e487b7100000000000000000000000000000000000000000000000000000000600052602260045260246000fd5b600080fd5b6000601f19601f8301169050919050565b7f45524332303a207472616e7366657220746f20746865207a65726f206164647260008201527f6573730000000000000000000000000000000000000000000000000000000000602082015250565b7f52657175657374656420616d6f756e742073686f756c64206265206d6f72652060008201527f7468616e20300000000000000000000000000000000000000000000000000000602082015250565b7f416d6f756e74206f6620746f6b656e2073656e74206973206c6573732074686160008201527f6e20746865206d696e6d756d20746f6b65732072657175697265640000000000602082015250565b7f45524332303a206275726e20616d6f756e7420657863656564732062616c616e60008201527f6365000000000000000000000000000000000000000000000000000000000000602082015250565b7f45524332303a20617070726f766520746f20746865207a65726f20616464726560008201527f7373000000000000000000000000000000000000000000000000000000000000602082015250565b7f45524332303a20696e73756666696369656e7420616c6c6f77616e6365000000600082015250565b7f45524332303a207472616e7366657220616d6f756e742065786365656473206260008201527f616c616e63650000000000000000000000000000000000000000000000000000602082015250565b7f696e76616c696420526573657276650000000000000000000000000000000000600082015250565b7f45524332303a206275726e2066726f6d20746865207a65726f2061646472657360008201527f7300000000000000000000000000000000000000000000000000000000000000602082015250565b7f696e73756666696369656e74206f757470757420616d6f756e74000000000000600082015250565b7f45524332303a207472616e736665722066726f6d20746865207a65726f20616460008201527f6472657373000000000000000000000000000000000000000000000000000000602082015250565b7f5472616e73616374696f6e206661696c65640000000000000000000000000000600082015250565b50565b7f45524332303a20617070726f76652066726f6d20746865207a65726f2061646460008201527f7265737300000000000000000000000000000000000000000000000000000000602082015250565b7f45524332303a2064656372656173656420616c6c6f77616e63652062656c6f7760008201527f207a65726f000000000000000000000000000000000000000000000000000000602082015250565b7f45524332303a206d696e7420746f20746865207a65726f206164647265737300600082015250565b612716816121ca565b811461272157600080fd5b50565b61272d816121dc565b811461273857600080fd5b50565b61274481612208565b811461274f57600080fd5b5056fea2646970667358221220e157caef0a08845446c902480997766c984e6006cd246f7b6e04c2ff5b1ca28d64736f6c63430008070033",
  "devdoc": {
    "kind": "dev",
    "methods": {
      "allowance(address,address)": {
        "details": "See {IERC20-allowance}."
      },
      "approve(address,uint256)": {
        "details": "See {IERC20-approve}. NOTE: If `amount` is the maximum `uint256`, the allowance is not updated on `transferFrom`. This is semantically equivalent to an infinite approval. Requirements: - `spender` cannot be the zero address."
      },
      "balanceOf(address)": {
        "details": "See {IERC20-balanceOf}."
      },
      "decimals()": {
        "details": "Returns the number of decimals used to get its user representation. For example, if `decimals` equals `2`, a balance of `505` tokens should be displayed to a user as `5.05` (`505 / 10 ** 2`). Tokens usually opt for a value of 18, imitating the relationship between Ether and Wei. This is the value {ERC20} uses, unless this function is overridden; NOTE: This information is only used for _display_ purposes: it in no way affects any of the arithmetic of the contract, including {IERC20-balanceOf} and {IERC20-transfer}."
      },
      "decreaseAllowance(address,uint256)": {
        "details": "Atomically decreases the allowance granted to `spender` by the caller. This is an alternative to {approve} that can be used as a mitigation for problems described in {IERC20-approve}. Emits an {Approval} event indicating the updated allowance. Requirements: - `spender` cannot be the zero address. - `spender` must have allowance for the caller of at least `subtractedValue`."
      },
      "increaseAllowance(address,uint256)": {
        "details": "Atomically increases the allowance granted to `spender` by the caller. This is an alternative to {approve} that can be used as a mitigation for problems described in {IERC20-approve}. Emits an {Approval} event indicating the updated allowance. Requirements: - `spender` cannot be the zero address."
      },
      "name()": {
        "details": "Returns the name of the token."
      },
      "symbol()": {
        "details": "Returns the symbol of the token, usually a shorter version of the name."
      },
      "totalSupply()": {
        "details": "See {IERC20-totalSupply}."
      },
      "transfer(address,uint256)": {
        "details": "See {IERC20-transfer}. Requirements: - `to` cannot be the zero address. - the caller must have a balance of at least `amount`."
      },
      "transferFrom(address,address,uint256)": {
        "details": "See {IERC20-transferFrom}. Emits an {Approval} event indicating the updated allowance. This is not required by the EIP. See the note at the beginning of {ERC20}. NOTE: Does not update the allowance if the current allowance is the maximum `uint256`. Requirements: - `from` and `to` cannot be the zero address. - `from` must have a balance of at least `amount`. - the caller must have allowance for ``from``'s tokens of at least `amount`."
      }
    },
    "version": 1
  },
  "userdoc": {
    "kind": "user",
    "methods": {},
    "version": 1
  },
  "storageLayout": {
    "storage": [
      {
        "astId": 15,
        "contract": "contracts/Exchange.sol:Exchange",
        "label": "_balances",
        "offset": 0,
        "slot": "0",
        "type": "t_mapping(t_address,t_uint256)"
      },
      {
        "astId": 21,
        "contract": "contracts/Exchange.sol:Exchange",
        "label": "_allowances",
        "offset": 0,
        "slot": "1",
        "type": "t_mapping(t_address,t_mapping(t_address,t_uint256))"
      },
      {
        "astId": 23,
        "contract": "contracts/Exchange.sol:Exchange",
        "label": "_totalSupply",
        "offset": 0,
        "slot": "2",
        "type": "t_uint256"
      },
      {
        "astId": 25,
        "contract": "contracts/Exchange.sol:Exchange",
        "label": "_name",
        "offset": 0,
        "slot": "3",
        "type": "t_string_storage"
      },
      {
        "astId": 27,
        "contract": "contracts/Exchange.sol:Exchange",
        "label": "_symbol",
        "offset": 0,
        "slot": "4",
        "type": "t_string_storage"
      },
      {
        "astId": 718,
        "contract": "contracts/Exchange.sol:Exchange",
        "label": "cryptoDevTokenAddress",
        "offset": 0,
        "slot": "5",
        "type": "t_address"
      }
    ],
    "types": {
      "t_address": {
        "encoding": "inplace",
        "label": "address",
        "numberOfBytes": "20"
      },
      "t_mapping(t_address,t_mapping(t_address,t_uint256))": {
        "encoding": "mapping",
        "key": "t_address",
        "label": "mapping(address => mapping(address => uint256))",
        "numberOfBytes": "32",
        "value": "t_mapping(t_address,t_uint256)"
      },
      "t_mapping(t_address,t_uint256)": {
        "encoding": "mapping",
        "key": "t_address",
        "label": "mapping(address => uint256)",
        "numberOfBytes": "32",
        "value": "t_uint256"
      },
      "t_string_storage": {
        "encoding": "bytes",
        "label": "string",
        "numberOfBytes": "32"
      },
      "t_uint256": {
        "encoding": "inplace",
        "label": "uint256",
        "numberOfBytes": "32"
      }
    }
  }
}