{
  "address": "0xe7f1725E7734CE288F8367e1Bb143E90bb3F0512",
  "abi": [
    {
      "inputs": [
        {
          "internalType": "address",
          "name": "_CryptoDevtoken",
          "type": "address"
        }
      ],
      "stateMutability": "nonpayable",
      "type": "constructor"
    },
    {
      "anonymous": false,
      "inputs": [
        {
          "indexed": true,
          "internalType": "address",
          "name": "owner",
          "type": "address"
        },
        {
          "indexed": true,
          "internalType": "address",
          "name": "spender",
          "type": "address"
        },
        {
          "indexed": false,
          "internalType": "uint256",
          "name": "value",
          "type": "uint256"
        }
      ],
      "name": "Approval",
      "type": "event"
    },
    {
      "anonymous": false,
      "inputs": [
        {
          "indexed": true,
          "internalType": "address",
          "name": "from",
          "type": "address"
        },
        {
          "indexed": true,
          "internalType": "address",
          "name": "to",
          "type": "address"
        },
        {
          "indexed": false,
          "internalType": "uint256",
          "name": "value",
          "type": "uint256"
        }
      ],
      "name": "Transfer",
      "type": "event"
    },
    {
      "inputs": [
        {
          "internalType": "uint256",
          "name": "_amount",
          "type": "uint256"
        }
      ],
      "name": "addLiquidity",
      "outputs": [
        {
          "internalType": "uint256",
          "name": "",
          "type": "uint256"
        }
      ],
      "stateMutability": "payable",
      "type": "function"
    },
    {
      "inputs": [
        {
          "internalType": "address",
          "name": "owner",
          "type": "address"
        },
        {
          "internalType": "address",
          "name": "spender",
          "type": "address"
        }
      ],
      "name": "allowance",
      "outputs": [
        {
          "internalType": "uint256",
          "name": "",
          "type": "uint256"
        }
      ],
      "stateMutability": "view",
      "type": "function"
    },
    {
      "inputs": [
        {
          "internalType": "address",
          "name": "spender",
          "type": "address"
        },
        {
          "internalType": "uint256",
          "name": "amount",
          "type": "uint256"
        }
      ],
      "name": "approve",
      "outputs": [
        {
          "internalType": "bool",
          "name": "",
          "type": "bool"
        }
      ],
      "stateMutability": "nonpayable",
      "type": "function"
    },
    {
      "inputs": [
        {
          "internalType": "address",
          "name": "account",
          "type": "address"
        }
      ],
      "name": "balanceOf",
      "outputs": [
        {
          "internalType": "uint256",
          "name": "",
          "type": "uint256"
        }
      ],
      "stateMutability": "view",
      "type": "function"
    },
    {
      "inputs": [
        {
          "internalType": "uint256",
          "name": "tokenSold",
          "type": "uint256"
        },
        {
          "internalType": "uint256",
          "name": "_minEth",
          "type": "uint256"
        }
      ],
      "name": "cryptoToeth",
      "outputs": [],
      "stateMutability": "nonpayable",
      "type": "function"
    },
    {
      "inputs": [],
      "name": "decimals",
      "outputs": [
        {
          "internalType": "uint8",
          "name": "",
          "type": "uint8"
        }
      ],
      "stateMutability": "view",
      "type": "function"
    },
    {
      "inputs": [
        {
          "internalType": "address",
          "name": "spender",
          "type": "address"
        },
        {
          "internalType": "uint256",
          "name": "subtractedValue",
          "type": "uint256"
        }
      ],
      "name": "decreaseAllowance",
      "outputs": [
        {
          "internalType": "bool",
          "name": "",
          "type": "bool"
        }
      ],
      "stateMutability": "nonpayable",
      "type": "function"
    },
    {
      "inputs": [
        {
          "internalType": "uint256",
          "name": "_minTokens",
          "type": "uint256"
        }
      ],
      "name": "ethToCryptoDev",
      "outputs": [],
      "stateMutability": "payable",
      "type": "function"
    },
    {
      "inputs": [
        {
          "internalType": "uint256",
          "name": "inputAmount",
          "type": "uint256"
        },
        {
          "internalType": "uint256",
          "name": "inputReserve",
          "type": "uint256"
        },
        {
          "internalType": "uint256",
          "name": "outputReserve",
          "type": "uint256"
        }
      ],
      "name": "getAmountOfToken",
      "outputs": [
        {
          "internalType": "uint256",
          "name": "",
          "type": "uint256"
        }
      ],
      "stateMutability": "pure",
      "type": "function"
    },
    {
      "inputs": [],
      "name": "getReserve",
      "outputs": [
        {
          "internalType": "uint256",
          "name": "",
          "type": "uint256"
        }
      ],
      "stateMutability": "view",
      "type": "function"
    },
    {
      "inputs": [
        {
          "internalType": "address",
          "name": "spender",
          "type": "address"
        },
        {
          "internalType": "uint256",
          "name": "addedValue",
          "type": "uint256"
        }
      ],
      "name": "increaseAllowance",
      "outputs": [
        {
          "internalType": "bool",
          "name": "",
          "type": "bool"
        }
      ],
      "stateMutability": "nonpayable",
      "type": "function"
    },
    {
      "inputs": [],
      "name": "name",
      "outputs": [
        {
          "internalType": "string",
          "name": "",
          "type": "string"
        }
      ],
      "stateMutability": "view",
      "type": "function"
    },
    {
      "inputs": [
        {
          "internalType": "uint256",
          "name": "_amount",
          "type": "uint256"
        }
      ],
      "name": "removeLiquidity",
      "outputs": [
        {
          "internalType": "uint256",
          "name": "",
          "type": "uint256"
        },
        {
          "internalType": "uint256",
          "name": "",
          "type": "uint256"
        }
      ],
      "stateMutability": "nonpayable",
      "type": "function"
    },
    {
      "inputs": [],
      "name": "symbol",
      "outputs": [
        {
          "internalType": "string",
          "name": "",
          "type": "string"
        }
      ],
      "stateMutability": "view",
      "type": "function"
    },
    {
      "inputs": [],
      "name": "totalSupply",
      "outputs": [
        {
          "internalType": "uint256",
          "name": "",
          "type": "uint256"
        }
      ],
      "stateMutability": "view",
      "type": "function"
    },
    {
      "inputs": [
        {
          "internalType": "address",
          "name": "to",
          "type": "address"
        },
        {
          "internalType": "uint256",
          "name": "amount",
          "type": "uint256"
        }
      ],
      "name": "transfer",
      "outputs": [
        {
          "internalType": "bool",
          "name": "",
          "type": "bool"
        }
      ],
      "stateMutability": "nonpayable",
      "type": "function"
    },
    {
      "inputs": [
        {
          "internalType": "address",
          "name": "from",
          "type": "address"
        },
        {
          "internalType": "address",
          "name": "to",
          "type": "address"
        },
        {
          "internalType": "uint256",
          "name": "amount",
          "type": "uint256"
        }
      ],
      "name": "transferFrom",
      "outputs": [
        {
          "internalType": "bool",
          "name": "",
          "type": "bool"
        }
      ],
      "stateMutability": "nonpayable",
      "type": "function"
    }
  ],
  "transactionHash": "0xbe3974ed4e28e1d82451c186ff9f9523db55946ed83f97a683a150c8f29a4705",
  "args": [
    "0x5FbDB2315678afecb367f032d93F642f64180aa3"
  ],
  "numDeployments": 1,
  "solcInputHash": "f4111ba5d67692b0a75252a7cf06292c",
  "bytecode": "0x60806040523480156200001157600080fd5b5060405162002a8238038062002a82833981810160405281019062000037919062000259565b6040518060400160405280601281526020017f43727970746f446576204c5020546f6b656e00000000000000000000000000008152506040518060400160405280600481526020017f43444c50000000000000000000000000000000000000000000000000000000008152508160039080519060200190620000bb92919062000192565b508060049080519060200190620000d492919062000192565b505050600073ffffffffffffffffffffffffffffffffffffffff168173ffffffffffffffffffffffffffffffffffffffff1614156200014a576040517f08c379a00000000000000000000000000000000000000000000000000000000081526004016200014190620002b2565b60405180910390fd5b80600560006101000a81548173ffffffffffffffffffffffffffffffffffffffff021916908373ffffffffffffffffffffffffffffffffffffffff16021790555050620003ec565b828054620001a09062000319565b90600052602060002090601f016020900481019282620001c4576000855562000210565b82601f10620001df57805160ff191683800117855562000210565b8280016001018555821562000210579182015b828111156200020f578251825591602001919060010190620001f2565b5b5090506200021f919062000223565b5090565b5b808211156200023e57600081600090555060010162000224565b5090565b6000815190506200025381620003d2565b92915050565b6000602082840312156200027257620002716200037e565b5b6000620002828482850162000242565b91505092915050565b60006200029a602683620002d4565b9150620002a78262000383565b604082019050919050565b60006020820190508181036000830152620002cd816200028b565b9050919050565b600082825260208201905092915050565b6000620002f282620002f9565b9050919050565b600073ffffffffffffffffffffffffffffffffffffffff82169050919050565b600060028204905060018216806200033257607f821691505b602082108114156200034957620003486200034f565b5b50919050565b7f4e487b7100000000000000000000000000000000000000000000000000000000600052602260045260246000fd5b600080fd5b7f546f6b656e2061646472657373207061737365642069732061206e756c6c206160008201527f6464726573730000000000000000000000000000000000000000000000000000602082015250565b620003dd81620002e5565b8114620003e957600080fd5b50565b61268680620003fc6000396000f3fe6080604052600436106100fe5760003560e01c806359bf5d39116100955780639c8f9f23116100645780639c8f9f2314610343578063a457c2d714610381578063a9059cbb146103be578063dd62ed3e146103fb578063e256238814610438576100fe565b806359bf5d391461029457806370a08231146102bf57806389abe242146102fc57806395d89b4114610318576100fe565b8063313ce567116100d1578063313ce567146101d357806339509351146101fe578063480456741461023b57806351c6590a14610264576100fe565b806306fdde0314610103578063095ea7b31461012e57806318160ddd1461016b57806323b872dd14610196575b600080fd5b34801561010f57600080fd5b50610118610475565b6040516101259190611d2b565b60405180910390f35b34801561013a57600080fd5b5061015560048036038101906101509190611881565b610507565b6040516101629190611d10565b60405180910390f35b34801561017757600080fd5b5061018061052a565b60405161018d9190611f2d565b60405180910390f35b3480156101a257600080fd5b506101bd60048036038101906101b8919061182e565b610534565b6040516101ca9190611d10565b60405180910390f35b3480156101df57600080fd5b506101e8610563565b6040516101f59190611f71565b60405180910390f35b34801561020a57600080fd5b5061022560048036038101906102209190611881565b61056c565b6040516102329190611d10565b60405180910390f35b34801561024757600080fd5b50610262600480360381019061025d9190611948565b6105a3565b005b61027e600480360381019061027991906118ee565b610760565b60405161028b9190611f2d565b60405180910390f35b3480156102a057600080fd5b506102a96108ed565b6040516102b69190611f2d565b60405180910390f35b3480156102cb57600080fd5b506102e660048036038101906102e191906117c1565b61099f565b6040516102f39190611f2d565b60405180910390f35b610316600480360381019061031191906118ee565b6109e7565b005b34801561032457600080fd5b5061032d610b05565b60405161033a9190611d2b565b60405180910390f35b34801561034f57600080fd5b5061036a600480360381019061036591906118ee565b610b97565b604051610378929190611f48565b60405180910390f35b34801561038d57600080fd5b506103a860048036038101906103a39190611881565b610da1565b6040516103b59190611d10565b60405180910390f35b3480156103ca57600080fd5b506103e560048036038101906103e09190611881565b610e18565b6040516103f29190611d10565b60405180910390f35b34801561040757600080fd5b50610422600480360381019061041d91906117ee565b610e3b565b60405161042f9190611f2d565b60405180910390f35b34801561044457600080fd5b5061045f600480360381019061045a9190611988565b610ec2565b60405161046c9190611f2d565b60405180910390f35b60606003805461048490612150565b80601f01602080910402602001604051908101604052809291908181526020018280546104b090612150565b80156104fd5780601f106104d2576101008083540402835291602001916104fd565b820191906000526020600020905b8154815290600101906020018083116104e057829003601f168201915b5050505050905090565b600080610512610f67565b905061051f818585610f6f565b600191505092915050565b6000600254905090565b60008061053f610f67565b905061054c85828561113a565b6105578585856111c6565b60019150509392505050565b60006012905090565b600080610577610f67565b90506105988185856105898589610e3b565b6105939190611fb3565b610f6f565b600191505092915050565b60006105b7836105b16108ed565b47610ec2565b9050818110156105fc576040517f08c379a00000000000000000000000000000000000000000000000000000000081526004016105f390611e6d565b60405180910390fd5b600560009054906101000a900473ffffffffffffffffffffffffffffffffffffffff1673ffffffffffffffffffffffffffffffffffffffff166323b872dd3330866040518463ffffffff1660e01b815260040161065b93929190611cb0565b602060405180830381600087803b15801561067557600080fd5b505af1158015610689573d6000803e3d6000fd5b505050506040513d601f19601f820116820180604052508101906106ad91906118c1565b5060003373ffffffffffffffffffffffffffffffffffffffff16826040516106d490611c80565b60006040518083038185875af1925050503d8060008114610711576040519150601f19603f3d011682016040523d82523d6000602084013e610716565b606091505b505090508061075a576040517f08c379a000000000000000000000000000000000000000000000000000000000815260040161075190611ead565b60405180910390fd5b50505050565b600080600047905060006107726108ed565b90506000600560009054906101000a900473ffffffffffffffffffffffffffffffffffffffff1690506000821415610846578073ffffffffffffffffffffffffffffffffffffffff166323b872dd3330896040518463ffffffff1660e01b81526004016107e193929190611cb0565b602060405180830381600087803b1580156107fb57600080fd5b505af115801561080f573d6000803e3d6000fd5b505050506040513d601f19601f8201168201806040525081019061083391906118c1565b50829350610841338561143e565b6108e1565b600034846108549190612094565b90506000813485610865919061203a565b61086f9190612009565b9050808810156108b4576040517f08c379a00000000000000000000000000000000000000000000000000000000081526004016108ab90611d8d565b60405180910390fd5b81346108be61052a565b6108c8919061203a565b6108d29190612009565b95506108de338761143e565b50505b83945050505050919050565b6000600560009054906101000a900473ffffffffffffffffffffffffffffffffffffffff1673ffffffffffffffffffffffffffffffffffffffff166370a08231306040518263ffffffff1660e01b815260040161094a9190611c95565b60206040518083038186803b15801561096257600080fd5b505afa158015610976573d6000803e3d6000fd5b505050506040513d601f19601f8201168201806040525081019061099a919061191b565b905090565b60008060008373ffffffffffffffffffffffffffffffffffffffff1673ffffffffffffffffffffffffffffffffffffffff168152602001908152602001600020549050919050565b60006109f16108ed565b90506000610a0b343447610a059190612094565b84610ec2565b905082811015610a50576040517f08c379a0000000000000000000000000000000000000000000000000000000008152600401610a4790611e6d565b60405180910390fd5b600560009054906101000a900473ffffffffffffffffffffffffffffffffffffffff1673ffffffffffffffffffffffffffffffffffffffff1663a9059cbb33836040518363ffffffff1660e01b8152600401610aad929190611ce7565b602060405180830381600087803b158015610ac757600080fd5b505af1158015610adb573d6000803e3d6000fd5b505050506040513d601f19601f82011682018060405250810190610aff91906118c1565b50505050565b606060048054610b1490612150565b80601f0160208091040260200160405190810160405280929190818152602001828054610b4090612150565b8015610b8d5780601f10610b6257610100808354040283529160200191610b8d565b820191906000526020600020905b815481529060010190602001808311610b7057829003601f168201915b5050505050905090565b60008060008311610bdd576040517f08c379a0000000000000000000000000000000000000000000000000000000008152600401610bd490611d6d565b60405180910390fd5b60004790506000610bec61052a565b90506000818387610bfd919061203a565b610c079190612009565b905060008287610c156108ed565b610c1f919061203a565b610c299190612009565b9050610c353388611595565b60003373ffffffffffffffffffffffffffffffffffffffff1683604051610c5b90611c80565b60006040518083038185875af1925050503d8060008114610c98576040519150601f19603f3d011682016040523d82523d6000602084013e610c9d565b606091505b5050905080610ce1576040517f08c379a0000000000000000000000000000000000000000000000000000000008152600401610cd890611ead565b60405180910390fd5b600560009054906101000a900473ffffffffffffffffffffffffffffffffffffffff1673ffffffffffffffffffffffffffffffffffffffff1663a9059cbb33846040518363ffffffff1660e01b8152600401610d3e929190611ce7565b602060405180830381600087803b158015610d5857600080fd5b505af1158015610d6c573d6000803e3d6000fd5b505050506040513d601f19601f82011682018060405250810190610d9091906118c1565b508282965096505050505050915091565b600080610dac610f67565b90506000610dba8286610e3b565b905083811015610dff576040517f08c379a0000000000000000000000000000000000000000000000000000000008152600401610df690611eed565b60405180910390fd5b610e0c8286868403610f6f565b60019250505092915050565b600080610e23610f67565b9050610e308185856111c6565b600191505092915050565b6000600160008473ffffffffffffffffffffffffffffffffffffffff1673ffffffffffffffffffffffffffffffffffffffff16815260200190815260200160002060008373ffffffffffffffffffffffffffffffffffffffff1673ffffffffffffffffffffffffffffffffffffffff16815260200190815260200160002054905092915050565b60008083118015610ed35750600082115b610f12576040517f08c379a0000000000000000000000000000000000000000000000000000000008152600401610f0990611e2d565b60405180910390fd5b6000606385610f21919061203a565b905060008382610f31919061203a565b9050600082606487610f43919061203a565b610f4d9190611fb3565b90508082610f5b9190612009565b93505050509392505050565b600033905090565b600073ffffffffffffffffffffffffffffffffffffffff168373ffffffffffffffffffffffffffffffffffffffff161415610fdf576040517f08c379a0000000000000000000000000000000000000000000000000000000008152600401610fd690611ecd565b60405180910390fd5b600073ffffffffffffffffffffffffffffffffffffffff168273ffffffffffffffffffffffffffffffffffffffff16141561104f576040517f08c379a000000000000000000000000000000000000000000000000000000000815260040161104690611dcd565b60405180910390fd5b80600160008573ffffffffffffffffffffffffffffffffffffffff1673ffffffffffffffffffffffffffffffffffffffff16815260200190815260200160002060008473ffffffffffffffffffffffffffffffffffffffff1673ffffffffffffffffffffffffffffffffffffffff168152602001908152602001600020819055508173ffffffffffffffffffffffffffffffffffffffff168373ffffffffffffffffffffffffffffffffffffffff167f8c5be1e5ebec7d5bd14f71427d1e84f3dd0314c0f7b2291e5b200ac8c7c3b9258360405161112d9190611f2d565b60405180910390a3505050565b60006111468484610e3b565b90507fffffffffffffffffffffffffffffffffffffffffffffffffffffffffffffffff81146111c057818110156111b2576040517f08c379a00000000000000000000000000000000000000000000000000000000081526004016111a990611ded565b60405180910390fd5b6111bf8484848403610f6f565b5b50505050565b600073ffffffffffffffffffffffffffffffffffffffff168373ffffffffffffffffffffffffffffffffffffffff161415611236576040517f08c379a000000000000000000000000000000000000000000000000000000000815260040161122d90611e8d565b60405180910390fd5b600073ffffffffffffffffffffffffffffffffffffffff168273ffffffffffffffffffffffffffffffffffffffff1614156112a6576040517f08c379a000000000000000000000000000000000000000000000000000000000815260040161129d90611d4d565b60405180910390fd5b6112b1838383611763565b60008060008573ffffffffffffffffffffffffffffffffffffffff1673ffffffffffffffffffffffffffffffffffffffff16815260200190815260200160002054905081811015611337576040517f08c379a000000000000000000000000000000000000000000000000000000000815260040161132e90611e0d565b60405180910390fd5b8181036000808673ffffffffffffffffffffffffffffffffffffffff1673ffffffffffffffffffffffffffffffffffffffff16815260200190815260200160002081905550816000808573ffffffffffffffffffffffffffffffffffffffff1673ffffffffffffffffffffffffffffffffffffffff168152602001908152602001600020600082825401925050819055508273ffffffffffffffffffffffffffffffffffffffff168473ffffffffffffffffffffffffffffffffffffffff167fddf252ad1be2c89b69c2b068fc378daa952ba7f163c4a11628f55a4df523b3ef846040516114259190611f2d565b60405180910390a3611438848484611768565b50505050565b600073ffffffffffffffffffffffffffffffffffffffff168273ffffffffffffffffffffffffffffffffffffffff1614156114ae576040517f08c379a00000000000000000000000000000000000000000000000000000000081526004016114a590611f0d565b60405180910390fd5b6114ba60008383611763565b80600260008282546114cc9190611fb3565b92505081905550806000808473ffffffffffffffffffffffffffffffffffffffff1673ffffffffffffffffffffffffffffffffffffffff168152602001908152602001600020600082825401925050819055508173ffffffffffffffffffffffffffffffffffffffff16600073ffffffffffffffffffffffffffffffffffffffff167fddf252ad1be2c89b69c2b068fc378daa952ba7f163c4a11628f55a4df523b3ef8360405161157d9190611f2d565b60405180910390a361159160008383611768565b5050565b600073ffffffffffffffffffffffffffffffffffffffff168273ffffffffffffffffffffffffffffffffffffffff161415611605576040517f08c379a00000000000000000000000000000000000000000000000000000000081526004016115fc90611e4d565b60405180910390fd5b61161182600083611763565b60008060008473ffffffffffffffffffffffffffffffffffffffff1673ffffffffffffffffffffffffffffffffffffffff16815260200190815260200160002054905081811015611697576040517f08c379a000000000000000000000000000000000000000000000000000000000815260040161168e90611dad565b60405180910390fd5b8181036000808573ffffffffffffffffffffffffffffffffffffffff1673ffffffffffffffffffffffffffffffffffffffff1681526020019081526020016000208190555081600260008282540392505081905550600073ffffffffffffffffffffffffffffffffffffffff168373ffffffffffffffffffffffffffffffffffffffff167fddf252ad1be2c89b69c2b068fc378daa952ba7f163c4a11628f55a4df523b3ef8460405161174a9190611f2d565b60405180910390a361175e83600084611768565b505050565b505050565b505050565b60008135905061177c8161260b565b92915050565b60008151905061179181612622565b92915050565b6000813590506117a681612639565b92915050565b6000815190506117bb81612639565b92915050565b6000602082840312156117d7576117d661220f565b5b60006117e58482850161176d565b91505092915050565b600080604083850312156118055761180461220f565b5b60006118138582860161176d565b92505060206118248582860161176d565b9150509250929050565b6000806000606084860312156118475761184661220f565b5b60006118558682870161176d565b93505060206118668682870161176d565b925050604061187786828701611797565b9150509250925092565b600080604083850312156118985761189761220f565b5b60006118a68582860161176d565b92505060206118b785828601611797565b9150509250929050565b6000602082840312156118d7576118d661220f565b5b60006118e584828501611782565b91505092915050565b6000602082840312156119045761190361220f565b5b600061191284828501611797565b91505092915050565b6000602082840312156119315761193061220f565b5b600061193f848285016117ac565b91505092915050565b6000806040838503121561195f5761195e61220f565b5b600061196d85828601611797565b925050602061197e85828601611797565b9150509250929050565b6000806000606084860312156119a1576119a061220f565b5b60006119af86828701611797565b93505060206119c086828701611797565b92505060406119d186828701611797565b9150509250925092565b6119e4816120c8565b82525050565b6119f3816120da565b82525050565b6000611a0482611f8c565b611a0e8185611fa2565b9350611a1e81856020860161211d565b611a2781612214565b840191505092915050565b6000611a3f602383611fa2565b9150611a4a82612225565b604082019050919050565b6000611a62602683611fa2565b9150611a6d82612274565b604082019050919050565b6000611a85603b83611fa2565b9150611a90826122c3565b604082019050919050565b6000611aa8602283611fa2565b9150611ab382612312565b604082019050919050565b6000611acb602283611fa2565b9150611ad682612361565b604082019050919050565b6000611aee601d83611fa2565b9150611af9826123b0565b602082019050919050565b6000611b11602683611fa2565b9150611b1c826123d9565b604082019050919050565b6000611b34600f83611fa2565b9150611b3f82612428565b602082019050919050565b6000611b57602183611fa2565b9150611b6282612451565b604082019050919050565b6000611b7a601a83611fa2565b9150611b85826124a0565b602082019050919050565b6000611b9d602583611fa2565b9150611ba8826124c9565b604082019050919050565b6000611bc0601283611fa2565b9150611bcb82612518565b602082019050919050565b6000611be3600083611f97565b9150611bee82612541565b600082019050919050565b6000611c06602483611fa2565b9150611c1182612544565b604082019050919050565b6000611c29602583611fa2565b9150611c3482612593565b604082019050919050565b6000611c4c601f83611fa2565b9150611c57826125e2565b602082019050919050565b611c6b81612106565b82525050565b611c7a81612110565b82525050565b6000611c8b82611bd6565b9150819050919050565b6000602082019050611caa60008301846119db565b92915050565b6000606082019050611cc560008301866119db565b611cd260208301856119db565b611cdf6040830184611c62565b949350505050565b6000604082019050611cfc60008301856119db565b611d096020830184611c62565b9392505050565b6000602082019050611d2560008301846119ea565b92915050565b60006020820190508181036000830152611d4581846119f9565b905092915050565b60006020820190508181036000830152611d6681611a32565b9050919050565b60006020820190508181036000830152611d8681611a55565b9050919050565b60006020820190508181036000830152611da681611a78565b9050919050565b60006020820190508181036000830152611dc681611a9b565b9050919050565b60006020820190508181036000830152611de681611abe565b9050919050565b60006020820190508181036000830152611e0681611ae1565b9050919050565b60006020820190508181036000830152611e2681611b04565b9050919050565b60006020820190508181036000830152611e4681611b27565b9050919050565b60006020820190508181036000830152611e6681611b4a565b9050919050565b60006020820190508181036000830152611e8681611b6d565b9050919050565b60006020820190508181036000830152611ea681611b90565b9050919050565b60006020820190508181036000830152611ec681611bb3565b9050919050565b60006020820190508181036000830152611ee681611bf9565b9050919050565b60006020820190508181036000830152611f0681611c1c565b9050919050565b60006020820190508181036000830152611f2681611c3f565b9050919050565b6000602082019050611f426000830184611c62565b92915050565b6000604082019050611f5d6000830185611c62565b611f6a6020830184611c62565b9392505050565b6000602082019050611f866000830184611c71565b92915050565b600081519050919050565b600081905092915050565b600082825260208201905092915050565b6000611fbe82612106565b9150611fc983612106565b9250827fffffffffffffffffffffffffffffffffffffffffffffffffffffffffffffffff03821115611ffe57611ffd612182565b5b828201905092915050565b600061201482612106565b915061201f83612106565b92508261202f5761202e6121b1565b5b828204905092915050565b600061204582612106565b915061205083612106565b9250817fffffffffffffffffffffffffffffffffffffffffffffffffffffffffffffffff048311821515161561208957612088612182565b5b828202905092915050565b600061209f82612106565b91506120aa83612106565b9250828210156120bd576120bc612182565b5b828203905092915050565b60006120d3826120e6565b9050919050565b60008115159050919050565b600073ffffffffffffffffffffffffffffffffffffffff82169050919050565b6000819050919050565b600060ff82169050919050565b60005b8381101561213b578082015181840152602081019050612120565b8381111561214a576000848401525b50505050565b6000600282049050600182168061216857607f821691505b6020821081141561217c5761217b6121e0565b5b50919050565b7f4e487b7100000000000000000000000000000000000000000000000000000000600052601160045260246000fd5b7f4e487b7100000000000000000000000000000000000000000000000000000000600052601260045260246000fd5b7f4e487b7100000000000000000000000000000000000000000000000000000000600052602260045260246000fd5b600080fd5b6000601f19601f8301169050919050565b7f45524332303a207472616e7366657220746f20746865207a65726f206164647260008201527f6573730000000000000000000000000000000000000000000000000000000000602082015250565b7f52657175657374656420616d6f756e742073686f756c64206265206d6f72652060008201527f7468616e20300000000000000000000000000000000000000000000000000000602082015250565b7f416d6f756e74206f6620746f6b656e2073656e74206973206c6573732074686160008201527f6e20746865206d696e6d756d20746f6b65732072657175697265640000000000602082015250565b7f45524332303a206275726e20616d6f756e7420657863656564732062616c616e60008201527f6365000000000000000000000000000000000000000000000000000000000000602082015250565b7f45524332303a20617070726f766520746f20746865207a65726f20616464726560008201527f7373000000000000000000000000000000000000000000000000000000000000602082015250565b7f45524332303a20696e73756666696369656e7420616c6c6f77616e6365000000600082015250565b7f45524332303a207472616e7366657220616d6f756e742065786365656473206260008201527f616c616e63650000000000000000000000000000000000000000000000000000602082015250565b7f696e76616c696420526573657276650000000000000000000000000000000000600082015250565b7f45524332303a206275726e2066726f6d20746865207a65726f2061646472657360008201527f7300000000000000000000000000000000000000000000000000000000000000602082015250565b7f696e73756666696369656e74206f757470757420616d6f756e74000000000000600082015250565b7f45524332303a207472616e736665722066726f6d20746865207a65726f20616460008201527f6472657373000000000000000000000000000000000000000000000000000000602082015250565b7f5472616e73616374696f6e206661696c65640000000000000000000000000000600082015250565b50565b7f45524332303a20617070726f76652066726f6d20746865207a65726f2061646460008201527f7265737300000000000000000000000000000000000000000000000000000000602082015250565b7f45524332303a2064656372656173656420616c6c6f77616e63652062656c6f7760008201527f207a65726f000000000000000000000000000000000000000000000000000000602082015250565b7f45524332303a206d696e7420746f20746865207a65726f206164647265737300600082015250565b612614816120c8565b811461261f57600080fd5b50565b61262b816120da565b811461263657600080fd5b50565b61264281612106565b811461264d57600080fd5b5056fea2646970667358221220772499dd5f4a8ea59ce5be9c71dfdc1c23e05e49953a84404473f3bb01b2e04e64736f6c63430008070033",
  "devdoc": {
    "kind": "dev",
    "methods": {
      "allowance(address,address)": {
        "details": "See {IERC20-allowance}."
      },
      "approve(address,uint256)": {
        "details": "See {IERC20-approve}. NOTE: If `amount` is the maximum `uint256`, the allowance is not updated on `transferFrom`. This is semantically equivalent to an infinite approval. Requirements: - `spender` cannot be the zero address."
      },
      "balanceOf(address)": {
        "details": "See {IERC20-balanceOf}."
      },
      "decimals()": {
        "details": "Returns the number of decimals used to get its user representation. For example, if `decimals` equals `2`, a balance of `505` tokens should be displayed to a user as `5.05` (`505 / 10 ** 2`). Tokens usually opt for a value of 18, imitating the relationship between Ether and Wei. This is the value {ERC20} uses, unless this function is overridden; NOTE: This information is only used for _display_ purposes: it in no way affects any of the arithmetic of the contract, including {IERC20-balanceOf} and {IERC20-transfer}."
      },
      "decreaseAllowance(address,uint256)": {
        "details": "Atomically decreases the allowance granted to `spender` by the caller. This is an alternative to {approve} that can be used as a mitigation for problems described in {IERC20-approve}. Emits an {Approval} event indicating the updated allowance. Requirements: - `spender` cannot be the zero address. - `spender` must have allowance for the caller of at least `subtractedValue`."
      },
      "increaseAllowance(address,uint256)": {
        "details": "Atomically increases the allowance granted to `spender` by the caller. This is an alternative to {approve} that can be used as a mitigation for problems described in {IERC20-approve}. Emits an {Approval} event indicating the updated allowance. Requirements: - `spender` cannot be the zero address."
      },
      "name()": {
        "details": "Returns the name of the token."
      },
      "symbol()": {
        "details": "Returns the symbol of the token, usually a shorter version of the name."
      },
      "totalSupply()": {
        "details": "See {IERC20-totalSupply}."
      },
      "transfer(address,uint256)": {
        "details": "See {IERC20-transfer}. Requirements: - `to` cannot be the zero address. - the caller must have a balance of at least `amount`."
      },
      "transferFrom(address,address,uint256)": {
        "details": "See {IERC20-transferFrom}. Emits an {Approval} event indicating the updated allowance. This is not required by the EIP. See the note at the beginning of {ERC20}. NOTE: Does not update the allowance if the current allowance is the maximum `uint256`. Requirements: - `from` and `to` cannot be the zero address. - `from` must have a balance of at least `amount`. - the caller must have allowance for ``from``'s tokens of at least `amount`."
      }
    },
    "version": 1
  },
  "userdoc": {
    "kind": "user",
    "methods": {},
    "version": 1
  },
  "storageLayout": {
    "storage": [
      {
        "astId": 128,
        "contract": "contracts/Exchange.sol:Exchange",
        "label": "_balances",
        "offset": 0,
        "slot": "0",
        "type": "t_mapping(t_address,t_uint256)"
      },
      {
        "astId": 134,
        "contract": "contracts/Exchange.sol:Exchange",
        "label": "_allowances",
        "offset": 0,
        "slot": "1",
        "type": "t_mapping(t_address,t_mapping(t_address,t_uint256))"
      },
      {
        "astId": 136,
        "contract": "contracts/Exchange.sol:Exchange",
        "label": "_totalSupply",
        "offset": 0,
        "slot": "2",
        "type": "t_uint256"
      },
      {
        "astId": 138,
        "contract": "contracts/Exchange.sol:Exchange",
        "label": "_name",
        "offset": 0,
        "slot": "3",
        "type": "t_string_storage"
      },
      {
        "astId": 140,
        "contract": "contracts/Exchange.sol:Exchange",
        "label": "_symbol",
        "offset": 0,
        "slot": "4",
        "type": "t_string_storage"
      },
      {
        "astId": 962,
        "contract": "contracts/Exchange.sol:Exchange",
        "label": "cryptoDevTokenAddress",
        "offset": 0,
        "slot": "5",
        "type": "t_address"
      }
    ],
    "types": {
      "t_address": {
        "encoding": "inplace",
        "label": "address",
        "numberOfBytes": "20"
      },
      "t_mapping(t_address,t_mapping(t_address,t_uint256))": {
        "encoding": "mapping",
        "key": "t_address",
        "label": "mapping(address => mapping(address => uint256))",
        "numberOfBytes": "32",
        "value": "t_mapping(t_address,t_uint256)"
      },
      "t_mapping(t_address,t_uint256)": {
        "encoding": "mapping",
        "key": "t_address",
        "label": "mapping(address => uint256)",
        "numberOfBytes": "32",
        "value": "t_uint256"
      },
      "t_string_storage": {
        "encoding": "bytes",
        "label": "string",
        "numberOfBytes": "32"
      },
      "t_uint256": {
        "encoding": "inplace",
        "label": "uint256",
        "numberOfBytes": "32"
      }
    }
  }
}