{
  "address": "0xe7f1725E7734CE288F8367e1Bb143E90bb3F0512",
  "abi": [
    {
      "inputs": [
        {
          "internalType": "address",
          "name": "_CryptoDevtoken",
          "type": "address"
        }
      ],
      "stateMutability": "nonpayable",
      "type": "constructor"
    },
    {
      "anonymous": false,
      "inputs": [
        {
          "indexed": true,
          "internalType": "address",
          "name": "owner",
          "type": "address"
        },
        {
          "indexed": true,
          "internalType": "address",
          "name": "spender",
          "type": "address"
        },
        {
          "indexed": false,
          "internalType": "uint256",
          "name": "value",
          "type": "uint256"
        }
      ],
      "name": "Approval",
      "type": "event"
    },
    {
      "anonymous": false,
      "inputs": [
        {
          "indexed": true,
          "internalType": "address",
          "name": "from",
          "type": "address"
        },
        {
          "indexed": true,
          "internalType": "address",
          "name": "to",
          "type": "address"
        },
        {
          "indexed": false,
          "internalType": "uint256",
          "name": "value",
          "type": "uint256"
        }
      ],
      "name": "Transfer",
      "type": "event"
    },
    {
      "inputs": [
        {
          "internalType": "uint256",
          "name": "_amount",
          "type": "uint256"
        }
      ],
      "name": "addLiquidity",
      "outputs": [
        {
          "internalType": "uint256",
          "name": "",
          "type": "uint256"
        }
      ],
      "stateMutability": "payable",
      "type": "function"
    },
    {
      "inputs": [
        {
          "internalType": "address",
          "name": "owner",
          "type": "address"
        },
        {
          "internalType": "address",
          "name": "spender",
          "type": "address"
        }
      ],
      "name": "allowance",
      "outputs": [
        {
          "internalType": "uint256",
          "name": "",
          "type": "uint256"
        }
      ],
      "stateMutability": "view",
      "type": "function"
    },
    {
      "inputs": [
        {
          "internalType": "address",
          "name": "spender",
          "type": "address"
        },
        {
          "internalType": "uint256",
          "name": "amount",
          "type": "uint256"
        }
      ],
      "name": "approve",
      "outputs": [
        {
          "internalType": "bool",
          "name": "",
          "type": "bool"
        }
      ],
      "stateMutability": "nonpayable",
      "type": "function"
    },
    {
      "inputs": [
        {
          "internalType": "address",
          "name": "account",
          "type": "address"
        }
      ],
      "name": "balanceOf",
      "outputs": [
        {
          "internalType": "uint256",
          "name": "",
          "type": "uint256"
        }
      ],
      "stateMutability": "view",
      "type": "function"
    },
    {
      "inputs": [
        {
          "internalType": "uint256",
          "name": "tokenSold",
          "type": "uint256"
        },
        {
          "internalType": "uint256",
          "name": "_minEth",
          "type": "uint256"
        }
      ],
      "name": "cryptoToeth",
      "outputs": [],
      "stateMutability": "nonpayable",
      "type": "function"
    },
    {
      "inputs": [],
      "name": "decimals",
      "outputs": [
        {
          "internalType": "uint8",
          "name": "",
          "type": "uint8"
        }
      ],
      "stateMutability": "view",
      "type": "function"
    },
    {
      "inputs": [
        {
          "internalType": "address",
          "name": "spender",
          "type": "address"
        },
        {
          "internalType": "uint256",
          "name": "subtractedValue",
          "type": "uint256"
        }
      ],
      "name": "decreaseAllowance",
      "outputs": [
        {
          "internalType": "bool",
          "name": "",
          "type": "bool"
        }
      ],
      "stateMutability": "nonpayable",
      "type": "function"
    },
    {
      "inputs": [
        {
          "internalType": "uint256",
          "name": "_minTokens",
          "type": "uint256"
        }
      ],
      "name": "ethToCryptoDev",
      "outputs": [],
      "stateMutability": "payable",
      "type": "function"
    },
    {
      "inputs": [
        {
          "internalType": "uint256",
          "name": "inputAmount",
          "type": "uint256"
        },
        {
          "internalType": "uint256",
          "name": "inputReserve",
          "type": "uint256"
        },
        {
          "internalType": "uint256",
          "name": "outputReserve",
          "type": "uint256"
        }
      ],
      "name": "getAmountOfToken",
      "outputs": [
        {
          "internalType": "uint256",
          "name": "",
          "type": "uint256"
        }
      ],
      "stateMutability": "pure",
      "type": "function"
    },
    {
      "inputs": [],
      "name": "getReserve",
      "outputs": [
        {
          "internalType": "uint256",
          "name": "",
          "type": "uint256"
        }
      ],
      "stateMutability": "view",
      "type": "function"
    },
    {
      "inputs": [
        {
          "internalType": "address",
          "name": "spender",
          "type": "address"
        },
        {
          "internalType": "uint256",
          "name": "addedValue",
          "type": "uint256"
        }
      ],
      "name": "increaseAllowance",
      "outputs": [
        {
          "internalType": "bool",
          "name": "",
          "type": "bool"
        }
      ],
      "stateMutability": "nonpayable",
      "type": "function"
    },
    {
      "inputs": [],
      "name": "name",
      "outputs": [
        {
          "internalType": "string",
          "name": "",
          "type": "string"
        }
      ],
      "stateMutability": "view",
      "type": "function"
    },
    {
      "inputs": [
        {
          "internalType": "uint256",
          "name": "_amount",
          "type": "uint256"
        }
      ],
      "name": "removeLiquidity",
      "outputs": [
        {
          "internalType": "uint256",
          "name": "",
          "type": "uint256"
        },
        {
          "internalType": "uint256",
          "name": "",
          "type": "uint256"
        }
      ],
      "stateMutability": "nonpayable",
      "type": "function"
    },
    {
      "inputs": [],
      "name": "symbol",
      "outputs": [
        {
          "internalType": "string",
          "name": "",
          "type": "string"
        }
      ],
      "stateMutability": "view",
      "type": "function"
    },
    {
      "inputs": [],
      "name": "totalSupply",
      "outputs": [
        {
          "internalType": "uint256",
          "name": "",
          "type": "uint256"
        }
      ],
      "stateMutability": "view",
      "type": "function"
    },
    {
      "inputs": [
        {
          "internalType": "address",
          "name": "to",
          "type": "address"
        },
        {
          "internalType": "uint256",
          "name": "amount",
          "type": "uint256"
        }
      ],
      "name": "transfer",
      "outputs": [
        {
          "internalType": "bool",
          "name": "",
          "type": "bool"
        }
      ],
      "stateMutability": "nonpayable",
      "type": "function"
    },
    {
      "inputs": [
        {
          "internalType": "address",
          "name": "from",
          "type": "address"
        },
        {
          "internalType": "address",
          "name": "to",
          "type": "address"
        },
        {
          "internalType": "uint256",
          "name": "amount",
          "type": "uint256"
        }
      ],
      "name": "transferFrom",
      "outputs": [
        {
          "internalType": "bool",
          "name": "",
          "type": "bool"
        }
      ],
      "stateMutability": "nonpayable",
      "type": "function"
    }
  ],
  "transactionHash": "0xbb2aecedd3485abee805ae995fe74351f18e787c07b64337446d2d0c70d5b611",
  "args": [
    "0x5FbDB2315678afecb367f032d93F642f64180aa3"
  ],
  "numDeployments": 1,
  "solcInputHash": "b0ed8c51f0a1ec81cece4cfdcfac9809",
  "bytecode": "0x60806040523480156200001157600080fd5b5060405162002b1238038062002b12833981810160405281019062000037919062000259565b6040518060400160405280601281526020017f43727970746f446576204c5020546f6b656e00000000000000000000000000008152506040518060400160405280600481526020017f43444c50000000000000000000000000000000000000000000000000000000008152508160039080519060200190620000bb92919062000192565b508060049080519060200190620000d492919062000192565b505050600073ffffffffffffffffffffffffffffffffffffffff168173ffffffffffffffffffffffffffffffffffffffff1614156200014a576040517f08c379a00000000000000000000000000000000000000000000000000000000081526004016200014190620002b2565b60405180910390fd5b80600560006101000a81548173ffffffffffffffffffffffffffffffffffffffff021916908373ffffffffffffffffffffffffffffffffffffffff16021790555050620003ec565b828054620001a09062000319565b90600052602060002090601f016020900481019282620001c4576000855562000210565b82601f10620001df57805160ff191683800117855562000210565b8280016001018555821562000210579182015b828111156200020f578251825591602001919060010190620001f2565b5b5090506200021f919062000223565b5090565b5b808211156200023e57600081600090555060010162000224565b5090565b6000815190506200025381620003d2565b92915050565b6000602082840312156200027257620002716200037e565b5b6000620002828482850162000242565b91505092915050565b60006200029a602683620002d4565b9150620002a78262000383565b604082019050919050565b60006020820190508181036000830152620002cd816200028b565b9050919050565b600082825260208201905092915050565b6000620002f282620002f9565b9050919050565b600073ffffffffffffffffffffffffffffffffffffffff82169050919050565b600060028204905060018216806200033257607f821691505b602082108114156200034957620003486200034f565b5b50919050565b7f4e487b7100000000000000000000000000000000000000000000000000000000600052602260045260246000fd5b600080fd5b7f546f6b656e2061646472657373207061737365642069732061206e756c6c206160008201527f6464726573730000000000000000000000000000000000000000000000000000602082015250565b620003dd81620002e5565b8114620003e957600080fd5b50565b61271680620003fc6000396000f3fe6080604052600436106100fe5760003560e01c806359bf5d39116100955780639c8f9f23116100645780639c8f9f2314610343578063a457c2d714610381578063a9059cbb146103be578063dd62ed3e146103fb578063e256238814610438576100fe565b806359bf5d391461029457806370a08231146102bf57806389abe242146102fc57806395d89b4114610318576100fe565b8063313ce567116100d1578063313ce567146101d357806339509351146101fe578063480456741461023b57806351c6590a14610264576100fe565b806306fdde0314610103578063095ea7b31461012e57806318160ddd1461016b57806323b872dd14610196575b600080fd5b34801561010f57600080fd5b50610118610475565b6040516101259190611dbb565b60405180910390f35b34801561013a57600080fd5b5061015560048036038101906101509190611911565b610507565b6040516101629190611da0565b60405180910390f35b34801561017757600080fd5b5061018061052a565b60405161018d9190611fbd565b60405180910390f35b3480156101a257600080fd5b506101bd60048036038101906101b891906118be565b610534565b6040516101ca9190611da0565b60405180910390f35b3480156101df57600080fd5b506101e8610563565b6040516101f59190612001565b60405180910390f35b34801561020a57600080fd5b5061022560048036038101906102209190611911565b61056c565b6040516102329190611da0565b60405180910390f35b34801561024757600080fd5b50610262600480360381019061025d91906119d8565b6105a3565b005b61027e6004803603810190610279919061197e565b610760565b60405161028b9190611fbd565b60405180910390f35b3480156102a057600080fd5b506102a961097d565b6040516102b69190611fbd565b60405180910390f35b3480156102cb57600080fd5b506102e660048036038101906102e19190611851565b610a2f565b6040516102f39190611fbd565b60405180910390f35b6103166004803603810190610311919061197e565b610a77565b005b34801561032457600080fd5b5061032d610b95565b60405161033a9190611dbb565b60405180910390f35b34801561034f57600080fd5b5061036a6004803603810190610365919061197e565b610c27565b604051610378929190611fd8565b60405180910390f35b34801561038d57600080fd5b506103a860048036038101906103a39190611911565b610e31565b6040516103b59190611da0565b60405180910390f35b3480156103ca57600080fd5b506103e560048036038101906103e09190611911565b610ea8565b6040516103f29190611da0565b60405180910390f35b34801561040757600080fd5b50610422600480360381019061041d919061187e565b610ecb565b60405161042f9190611fbd565b60405180910390f35b34801561044457600080fd5b5061045f600480360381019061045a9190611a18565b610f52565b60405161046c9190611fbd565b60405180910390f35b606060038054610484906121e0565b80601f01602080910402602001604051908101604052809291908181526020018280546104b0906121e0565b80156104fd5780601f106104d2576101008083540402835291602001916104fd565b820191906000526020600020905b8154815290600101906020018083116104e057829003601f168201915b5050505050905090565b600080610512610ff7565b905061051f818585610fff565b600191505092915050565b6000600254905090565b60008061053f610ff7565b905061054c8582856111ca565b610557858585611256565b60019150509392505050565b60006012905090565b600080610577610ff7565b90506105988185856105898589610ecb565b6105939190612043565b610fff565b600191505092915050565b60006105b7836105b161097d565b47610f52565b9050818110156105fc576040517f08c379a00000000000000000000000000000000000000000000000000000000081526004016105f390611efd565b60405180910390fd5b600560009054906101000a900473ffffffffffffffffffffffffffffffffffffffff1673ffffffffffffffffffffffffffffffffffffffff166323b872dd3330866040518463ffffffff1660e01b815260040161065b93929190611d40565b602060405180830381600087803b15801561067557600080fd5b505af1158015610689573d6000803e3d6000fd5b505050506040513d601f19601f820116820180604052508101906106ad9190611951565b5060003373ffffffffffffffffffffffffffffffffffffffff16826040516106d490611d10565b60006040518083038185875af1925050503d8060008114610711576040519150601f19603f3d011682016040523d82523d6000602084013e610716565b606091505b505090508061075a576040517f08c379a000000000000000000000000000000000000000000000000000000000815260040161075190611f3d565b60405180910390fd5b50505050565b6000806000479050600061077261097d565b90506000600560009054906101000a900473ffffffffffffffffffffffffffffffffffffffff1690506000821415610846578073ffffffffffffffffffffffffffffffffffffffff166323b872dd3330896040518463ffffffff1660e01b81526004016107e193929190611d40565b602060405180830381600087803b1580156107fb57600080fd5b505af115801561080f573d6000803e3d6000fd5b505050506040513d601f19601f820116820180604052508101906108339190611951565b5082935061084133856114ce565b610971565b600034846108549190612124565b9050600081348561086591906120ca565b61086f9190612099565b9050808810156108b4576040517f08c379a00000000000000000000000000000000000000000000000000000000081526004016108ab90611e1d565b60405180910390fd5b8273ffffffffffffffffffffffffffffffffffffffff166323b872dd33308b6040518463ffffffff1660e01b81526004016108f193929190611d40565b602060405180830381600087803b15801561090b57600080fd5b505af115801561091f573d6000803e3d6000fd5b505050506040513d601f19601f820116820180604052508101906109439190611951565b50813461094e61052a565b61095891906120ca565b6109629190612099565b955061096e33876114ce565b50505b83945050505050919050565b6000600560009054906101000a900473ffffffffffffffffffffffffffffffffffffffff1673ffffffffffffffffffffffffffffffffffffffff166370a08231306040518263ffffffff1660e01b81526004016109da9190611d25565b60206040518083038186803b1580156109f257600080fd5b505afa158015610a06573d6000803e3d6000fd5b505050506040513d601f19601f82011682018060405250810190610a2a91906119ab565b905090565b60008060008373ffffffffffffffffffffffffffffffffffffffff1673ffffffffffffffffffffffffffffffffffffffff168152602001908152602001600020549050919050565b6000610a8161097d565b90506000610a9b343447610a959190612124565b84610f52565b905082811015610ae0576040517f08c379a0000000000000000000000000000000000000000000000000000000008152600401610ad790611efd565b60405180910390fd5b600560009054906101000a900473ffffffffffffffffffffffffffffffffffffffff1673ffffffffffffffffffffffffffffffffffffffff1663a9059cbb33836040518363ffffffff1660e01b8152600401610b3d929190611d77565b602060405180830381600087803b158015610b5757600080fd5b505af1158015610b6b573d6000803e3d6000fd5b505050506040513d601f19601f82011682018060405250810190610b8f9190611951565b50505050565b606060048054610ba4906121e0565b80601f0160208091040260200160405190810160405280929190818152602001828054610bd0906121e0565b8015610c1d5780601f10610bf257610100808354040283529160200191610c1d565b820191906000526020600020905b815481529060010190602001808311610c0057829003601f168201915b5050505050905090565b60008060008311610c6d576040517f08c379a0000000000000000000000000000000000000000000000000000000008152600401610c6490611dfd565b60405180910390fd5b60004790506000610c7c61052a565b90506000818387610c8d91906120ca565b610c979190612099565b905060008287610ca561097d565b610caf91906120ca565b610cb99190612099565b9050610cc53388611625565b60003373ffffffffffffffffffffffffffffffffffffffff1683604051610ceb90611d10565b60006040518083038185875af1925050503d8060008114610d28576040519150601f19603f3d011682016040523d82523d6000602084013e610d2d565b606091505b5050905080610d71576040517f08c379a0000000000000000000000000000000000000000000000000000000008152600401610d6890611f3d565b60405180910390fd5b600560009054906101000a900473ffffffffffffffffffffffffffffffffffffffff1673ffffffffffffffffffffffffffffffffffffffff1663a9059cbb33846040518363ffffffff1660e01b8152600401610dce929190611d77565b602060405180830381600087803b158015610de857600080fd5b505af1158015610dfc573d6000803e3d6000fd5b505050506040513d601f19601f82011682018060405250810190610e209190611951565b508282965096505050505050915091565b600080610e3c610ff7565b90506000610e4a8286610ecb565b905083811015610e8f576040517f08c379a0000000000000000000000000000000000000000000000000000000008152600401610e8690611f7d565b60405180910390fd5b610e9c8286868403610fff565b60019250505092915050565b600080610eb3610ff7565b9050610ec0818585611256565b600191505092915050565b6000600160008473ffffffffffffffffffffffffffffffffffffffff1673ffffffffffffffffffffffffffffffffffffffff16815260200190815260200160002060008373ffffffffffffffffffffffffffffffffffffffff1673ffffffffffffffffffffffffffffffffffffffff16815260200190815260200160002054905092915050565b60008083118015610f635750600082115b610fa2576040517f08c379a0000000000000000000000000000000000000000000000000000000008152600401610f9990611ebd565b60405180910390fd5b6000606385610fb191906120ca565b905060008382610fc191906120ca565b9050600082606487610fd391906120ca565b610fdd9190612043565b90508082610feb9190612099565b93505050509392505050565b600033905090565b600073ffffffffffffffffffffffffffffffffffffffff168373ffffffffffffffffffffffffffffffffffffffff16141561106f576040517f08c379a000000000000000000000000000000000000000000000000000000000815260040161106690611f5d565b60405180910390fd5b600073ffffffffffffffffffffffffffffffffffffffff168273ffffffffffffffffffffffffffffffffffffffff1614156110df576040517f08c379a00000000000000000000000000000000000000000000000000000000081526004016110d690611e5d565b60405180910390fd5b80600160008573ffffffffffffffffffffffffffffffffffffffff1673ffffffffffffffffffffffffffffffffffffffff16815260200190815260200160002060008473ffffffffffffffffffffffffffffffffffffffff1673ffffffffffffffffffffffffffffffffffffffff168152602001908152602001600020819055508173ffffffffffffffffffffffffffffffffffffffff168373ffffffffffffffffffffffffffffffffffffffff167f8c5be1e5ebec7d5bd14f71427d1e84f3dd0314c0f7b2291e5b200ac8c7c3b925836040516111bd9190611fbd565b60405180910390a3505050565b60006111d68484610ecb565b90507fffffffffffffffffffffffffffffffffffffffffffffffffffffffffffffffff81146112505781811015611242576040517f08c379a000000000000000000000000000000000000000000000000000000000815260040161123990611e7d565b60405180910390fd5b61124f8484848403610fff565b5b50505050565b600073ffffffffffffffffffffffffffffffffffffffff168373ffffffffffffffffffffffffffffffffffffffff1614156112c6576040517f08c379a00000000000000000000000000000000000000000000000000000000081526004016112bd90611f1d565b60405180910390fd5b600073ffffffffffffffffffffffffffffffffffffffff168273ffffffffffffffffffffffffffffffffffffffff161415611336576040517f08c379a000000000000000000000000000000000000000000000000000000000815260040161132d90611ddd565b60405180910390fd5b6113418383836117f3565b60008060008573ffffffffffffffffffffffffffffffffffffffff1673ffffffffffffffffffffffffffffffffffffffff168152602001908152602001600020549050818110156113c7576040517f08c379a00000000000000000000000000000000000000000000000000000000081526004016113be90611e9d565b60405180910390fd5b8181036000808673ffffffffffffffffffffffffffffffffffffffff1673ffffffffffffffffffffffffffffffffffffffff16815260200190815260200160002081905550816000808573ffffffffffffffffffffffffffffffffffffffff1673ffffffffffffffffffffffffffffffffffffffff168152602001908152602001600020600082825401925050819055508273ffffffffffffffffffffffffffffffffffffffff168473ffffffffffffffffffffffffffffffffffffffff167fddf252ad1be2c89b69c2b068fc378daa952ba7f163c4a11628f55a4df523b3ef846040516114b59190611fbd565b60405180910390a36114c88484846117f8565b50505050565b600073ffffffffffffffffffffffffffffffffffffffff168273ffffffffffffffffffffffffffffffffffffffff16141561153e576040517f08c379a000000000000000000000000000000000000000000000000000000000815260040161153590611f9d565b60405180910390fd5b61154a600083836117f3565b806002600082825461155c9190612043565b92505081905550806000808473ffffffffffffffffffffffffffffffffffffffff1673ffffffffffffffffffffffffffffffffffffffff168152602001908152602001600020600082825401925050819055508173ffffffffffffffffffffffffffffffffffffffff16600073ffffffffffffffffffffffffffffffffffffffff167fddf252ad1be2c89b69c2b068fc378daa952ba7f163c4a11628f55a4df523b3ef8360405161160d9190611fbd565b60405180910390a3611621600083836117f8565b5050565b600073ffffffffffffffffffffffffffffffffffffffff168273ffffffffffffffffffffffffffffffffffffffff161415611695576040517f08c379a000000000000000000000000000000000000000000000000000000000815260040161168c90611edd565b60405180910390fd5b6116a1826000836117f3565b60008060008473ffffffffffffffffffffffffffffffffffffffff1673ffffffffffffffffffffffffffffffffffffffff16815260200190815260200160002054905081811015611727576040517f08c379a000000000000000000000000000000000000000000000000000000000815260040161171e90611e3d565b60405180910390fd5b8181036000808573ffffffffffffffffffffffffffffffffffffffff1673ffffffffffffffffffffffffffffffffffffffff1681526020019081526020016000208190555081600260008282540392505081905550600073ffffffffffffffffffffffffffffffffffffffff168373ffffffffffffffffffffffffffffffffffffffff167fddf252ad1be2c89b69c2b068fc378daa952ba7f163c4a11628f55a4df523b3ef846040516117da9190611fbd565b60405180910390a36117ee836000846117f8565b505050565b505050565b505050565b60008135905061180c8161269b565b92915050565b600081519050611821816126b2565b92915050565b600081359050611836816126c9565b92915050565b60008151905061184b816126c9565b92915050565b6000602082840312156118675761186661229f565b5b6000611875848285016117fd565b91505092915050565b600080604083850312156118955761189461229f565b5b60006118a3858286016117fd565b92505060206118b4858286016117fd565b9150509250929050565b6000806000606084860312156118d7576118d661229f565b5b60006118e5868287016117fd565b93505060206118f6868287016117fd565b925050604061190786828701611827565b9150509250925092565b600080604083850312156119285761192761229f565b5b6000611936858286016117fd565b925050602061194785828601611827565b9150509250929050565b6000602082840312156119675761196661229f565b5b600061197584828501611812565b91505092915050565b6000602082840312156119945761199361229f565b5b60006119a284828501611827565b91505092915050565b6000602082840312156119c1576119c061229f565b5b60006119cf8482850161183c565b91505092915050565b600080604083850312156119ef576119ee61229f565b5b60006119fd85828601611827565b9250506020611a0e85828601611827565b9150509250929050565b600080600060608486031215611a3157611a3061229f565b5b6000611a3f86828701611827565b9350506020611a5086828701611827565b9250506040611a6186828701611827565b9150509250925092565b611a7481612158565b82525050565b611a838161216a565b82525050565b6000611a948261201c565b611a9e8185612032565b9350611aae8185602086016121ad565b611ab7816122a4565b840191505092915050565b6000611acf602383612032565b9150611ada826122b5565b604082019050919050565b6000611af2602683612032565b9150611afd82612304565b604082019050919050565b6000611b15603b83612032565b9150611b2082612353565b604082019050919050565b6000611b38602283612032565b9150611b43826123a2565b604082019050919050565b6000611b5b602283612032565b9150611b66826123f1565b604082019050919050565b6000611b7e601d83612032565b9150611b8982612440565b602082019050919050565b6000611ba1602683612032565b9150611bac82612469565b604082019050919050565b6000611bc4600f83612032565b9150611bcf826124b8565b602082019050919050565b6000611be7602183612032565b9150611bf2826124e1565b604082019050919050565b6000611c0a601a83612032565b9150611c1582612530565b602082019050919050565b6000611c2d602583612032565b9150611c3882612559565b604082019050919050565b6000611c50601283612032565b9150611c5b826125a8565b602082019050919050565b6000611c73600083612027565b9150611c7e826125d1565b600082019050919050565b6000611c96602483612032565b9150611ca1826125d4565b604082019050919050565b6000611cb9602583612032565b9150611cc482612623565b604082019050919050565b6000611cdc601f83612032565b9150611ce782612672565b602082019050919050565b611cfb81612196565b82525050565b611d0a816121a0565b82525050565b6000611d1b82611c66565b9150819050919050565b6000602082019050611d3a6000830184611a6b565b92915050565b6000606082019050611d556000830186611a6b565b611d626020830185611a6b565b611d6f6040830184611cf2565b949350505050565b6000604082019050611d8c6000830185611a6b565b611d996020830184611cf2565b9392505050565b6000602082019050611db56000830184611a7a565b92915050565b60006020820190508181036000830152611dd58184611a89565b905092915050565b60006020820190508181036000830152611df681611ac2565b9050919050565b60006020820190508181036000830152611e1681611ae5565b9050919050565b60006020820190508181036000830152611e3681611b08565b9050919050565b60006020820190508181036000830152611e5681611b2b565b9050919050565b60006020820190508181036000830152611e7681611b4e565b9050919050565b60006020820190508181036000830152611e9681611b71565b9050919050565b60006020820190508181036000830152611eb681611b94565b9050919050565b60006020820190508181036000830152611ed681611bb7565b9050919050565b60006020820190508181036000830152611ef681611bda565b9050919050565b60006020820190508181036000830152611f1681611bfd565b9050919050565b60006020820190508181036000830152611f3681611c20565b9050919050565b60006020820190508181036000830152611f5681611c43565b9050919050565b60006020820190508181036000830152611f7681611c89565b9050919050565b60006020820190508181036000830152611f9681611cac565b9050919050565b60006020820190508181036000830152611fb681611ccf565b9050919050565b6000602082019050611fd26000830184611cf2565b92915050565b6000604082019050611fed6000830185611cf2565b611ffa6020830184611cf2565b9392505050565b60006020820190506120166000830184611d01565b92915050565b600081519050919050565b600081905092915050565b600082825260208201905092915050565b600061204e82612196565b915061205983612196565b9250827fffffffffffffffffffffffffffffffffffffffffffffffffffffffffffffffff0382111561208e5761208d612212565b5b828201905092915050565b60006120a482612196565b91506120af83612196565b9250826120bf576120be612241565b5b828204905092915050565b60006120d582612196565b91506120e083612196565b9250817fffffffffffffffffffffffffffffffffffffffffffffffffffffffffffffffff048311821515161561211957612118612212565b5b828202905092915050565b600061212f82612196565b915061213a83612196565b92508282101561214d5761214c612212565b5b828203905092915050565b600061216382612176565b9050919050565b60008115159050919050565b600073ffffffffffffffffffffffffffffffffffffffff82169050919050565b6000819050919050565b600060ff82169050919050565b60005b838110156121cb5780820151818401526020810190506121b0565b838111156121da576000848401525b50505050565b600060028204905060018216806121f857607f821691505b6020821081141561220c5761220b612270565b5b50919050565b7f4e487b7100000000000000000000000000000000000000000000000000000000600052601160045260246000fd5b7f4e487b7100000000000000000000000000000000000000000000000000000000600052601260045260246000fd5b7f4e487b7100000000000000000000000000000000000000000000000000000000600052602260045260246000fd5b600080fd5b6000601f19601f8301169050919050565b7f45524332303a207472616e7366657220746f20746865207a65726f206164647260008201527f6573730000000000000000000000000000000000000000000000000000000000602082015250565b7f52657175657374656420616d6f756e742073686f756c64206265206d6f72652060008201527f7468616e20300000000000000000000000000000000000000000000000000000602082015250565b7f416d6f756e74206f6620746f6b656e2073656e74206973206c6573732074686160008201527f6e20746865206d696e6d756d20746f6b65732072657175697265640000000000602082015250565b7f45524332303a206275726e20616d6f756e7420657863656564732062616c616e60008201527f6365000000000000000000000000000000000000000000000000000000000000602082015250565b7f45524332303a20617070726f766520746f20746865207a65726f20616464726560008201527f7373000000000000000000000000000000000000000000000000000000000000602082015250565b7f45524332303a20696e73756666696369656e7420616c6c6f77616e6365000000600082015250565b7f45524332303a207472616e7366657220616d6f756e742065786365656473206260008201527f616c616e63650000000000000000000000000000000000000000000000000000602082015250565b7f696e76616c696420526573657276650000000000000000000000000000000000600082015250565b7f45524332303a206275726e2066726f6d20746865207a65726f2061646472657360008201527f7300000000000000000000000000000000000000000000000000000000000000602082015250565b7f696e73756666696369656e74206f757470757420616d6f756e74000000000000600082015250565b7f45524332303a207472616e736665722066726f6d20746865207a65726f20616460008201527f6472657373000000000000000000000000000000000000000000000000000000602082015250565b7f5472616e73616374696f6e206661696c65640000000000000000000000000000600082015250565b50565b7f45524332303a20617070726f76652066726f6d20746865207a65726f2061646460008201527f7265737300000000000000000000000000000000000000000000000000000000602082015250565b7f45524332303a2064656372656173656420616c6c6f77616e63652062656c6f7760008201527f207a65726f000000000000000000000000000000000000000000000000000000602082015250565b7f45524332303a206d696e7420746f20746865207a65726f206164647265737300600082015250565b6126a481612158565b81146126af57600080fd5b50565b6126bb8161216a565b81146126c657600080fd5b50565b6126d281612196565b81146126dd57600080fd5b5056fea264697066735822122066470dd9550c79dde3377dc8eb253ff02f597025bfddf2cc595dc3729028a08264736f6c63430008070033",
  "devdoc": {
    "kind": "dev",
    "methods": {
      "allowance(address,address)": {
        "details": "See {IERC20-allowance}."
      },
      "approve(address,uint256)": {
        "details": "See {IERC20-approve}. NOTE: If `amount` is the maximum `uint256`, the allowance is not updated on `transferFrom`. This is semantically equivalent to an infinite approval. Requirements: - `spender` cannot be the zero address."
      },
      "balanceOf(address)": {
        "details": "See {IERC20-balanceOf}."
      },
      "decimals()": {
        "details": "Returns the number of decimals used to get its user representation. For example, if `decimals` equals `2`, a balance of `505` tokens should be displayed to a user as `5.05` (`505 / 10 ** 2`). Tokens usually opt for a value of 18, imitating the relationship between Ether and Wei. This is the value {ERC20} uses, unless this function is overridden; NOTE: This information is only used for _display_ purposes: it in no way affects any of the arithmetic of the contract, including {IERC20-balanceOf} and {IERC20-transfer}."
      },
      "decreaseAllowance(address,uint256)": {
        "details": "Atomically decreases the allowance granted to `spender` by the caller. This is an alternative to {approve} that can be used as a mitigation for problems described in {IERC20-approve}. Emits an {Approval} event indicating the updated allowance. Requirements: - `spender` cannot be the zero address. - `spender` must have allowance for the caller of at least `subtractedValue`."
      },
      "increaseAllowance(address,uint256)": {
        "details": "Atomically increases the allowance granted to `spender` by the caller. This is an alternative to {approve} that can be used as a mitigation for problems described in {IERC20-approve}. Emits an {Approval} event indicating the updated allowance. Requirements: - `spender` cannot be the zero address."
      },
      "name()": {
        "details": "Returns the name of the token."
      },
      "symbol()": {
        "details": "Returns the symbol of the token, usually a shorter version of the name."
      },
      "totalSupply()": {
        "details": "See {IERC20-totalSupply}."
      },
      "transfer(address,uint256)": {
        "details": "See {IERC20-transfer}. Requirements: - `to` cannot be the zero address. - the caller must have a balance of at least `amount`."
      },
      "transferFrom(address,address,uint256)": {
        "details": "See {IERC20-transferFrom}. Emits an {Approval} event indicating the updated allowance. This is not required by the EIP. See the note at the beginning of {ERC20}. NOTE: Does not update the allowance if the current allowance is the maximum `uint256`. Requirements: - `from` and `to` cannot be the zero address. - `from` must have a balance of at least `amount`. - the caller must have allowance for ``from``'s tokens of at least `amount`."
      }
    },
    "version": 1
  },
  "userdoc": {
    "kind": "user",
    "methods": {},
    "version": 1
  },
  "storageLayout": {
    "storage": [
      {
        "astId": 15,
        "contract": "contracts/Exchange.sol:Exchange",
        "label": "_balances",
        "offset": 0,
        "slot": "0",
        "type": "t_mapping(t_address,t_uint256)"
      },
      {
        "astId": 21,
        "contract": "contracts/Exchange.sol:Exchange",
        "label": "_allowances",
        "offset": 0,
        "slot": "1",
        "type": "t_mapping(t_address,t_mapping(t_address,t_uint256))"
      },
      {
        "astId": 23,
        "contract": "contracts/Exchange.sol:Exchange",
        "label": "_totalSupply",
        "offset": 0,
        "slot": "2",
        "type": "t_uint256"
      },
      {
        "astId": 25,
        "contract": "contracts/Exchange.sol:Exchange",
        "label": "_name",
        "offset": 0,
        "slot": "3",
        "type": "t_string_storage"
      },
      {
        "astId": 27,
        "contract": "contracts/Exchange.sol:Exchange",
        "label": "_symbol",
        "offset": 0,
        "slot": "4",
        "type": "t_string_storage"
      },
      {
        "astId": 718,
        "contract": "contracts/Exchange.sol:Exchange",
        "label": "cryptoDevTokenAddress",
        "offset": 0,
        "slot": "5",
        "type": "t_address"
      }
    ],
    "types": {
      "t_address": {
        "encoding": "inplace",
        "label": "address",
        "numberOfBytes": "20"
      },
      "t_mapping(t_address,t_mapping(t_address,t_uint256))": {
        "encoding": "mapping",
        "key": "t_address",
        "label": "mapping(address => mapping(address => uint256))",
        "numberOfBytes": "32",
        "value": "t_mapping(t_address,t_uint256)"
      },
      "t_mapping(t_address,t_uint256)": {
        "encoding": "mapping",
        "key": "t_address",
        "label": "mapping(address => uint256)",
        "numberOfBytes": "32",
        "value": "t_uint256"
      },
      "t_string_storage": {
        "encoding": "bytes",
        "label": "string",
        "numberOfBytes": "32"
      },
      "t_uint256": {
        "encoding": "inplace",
        "label": "uint256",
        "numberOfBytes": "32"
      }
    }
  }
}