{
  "address": "0x5FbDB2315678afecb367f032d93F642f64180aa3",
  "abi": [
    {
      "inputs": [],
      "stateMutability": "nonpayable",
      "type": "constructor"
    },
    {
      "anonymous": false,
      "inputs": [
        {
          "indexed": true,
          "internalType": "address",
          "name": "owner",
          "type": "address"
        },
        {
          "indexed": true,
          "internalType": "address",
          "name": "spender",
          "type": "address"
        },
        {
          "indexed": false,
          "internalType": "uint256",
          "name": "value",
          "type": "uint256"
        }
      ],
      "name": "Approval",
      "type": "event"
    },
    {
      "anonymous": false,
      "inputs": [
        {
          "indexed": true,
          "internalType": "address",
          "name": "previousOwner",
          "type": "address"
        },
        {
          "indexed": true,
          "internalType": "address",
          "name": "newOwner",
          "type": "address"
        }
      ],
      "name": "OwnershipTransferred",
      "type": "event"
    },
    {
      "anonymous": false,
      "inputs": [
        {
          "indexed": true,
          "internalType": "address",
          "name": "from",
          "type": "address"
        },
        {
          "indexed": true,
          "internalType": "address",
          "name": "to",
          "type": "address"
        },
        {
          "indexed": false,
          "internalType": "uint256",
          "name": "value",
          "type": "uint256"
        }
      ],
      "name": "Transfer",
      "type": "event"
    },
    {
      "stateMutability": "payable",
      "type": "fallback"
    },
    {
      "inputs": [],
      "name": "MAX_SUPPLY_LIMIT",
      "outputs": [
        {
          "internalType": "uint256",
          "name": "",
          "type": "uint256"
        }
      ],
      "stateMutability": "view",
      "type": "function"
    },
    {
      "inputs": [],
      "name": "TOKEN_PER_NFT",
      "outputs": [
        {
          "internalType": "uint256",
          "name": "",
          "type": "uint256"
        }
      ],
      "stateMutability": "view",
      "type": "function"
    },
    {
      "inputs": [],
      "name": "TOKEN_PRICE",
      "outputs": [
        {
          "internalType": "uint256",
          "name": "",
          "type": "uint256"
        }
      ],
      "stateMutability": "view",
      "type": "function"
    },
    {
      "inputs": [
        {
          "internalType": "address",
          "name": "owner",
          "type": "address"
        },
        {
          "internalType": "address",
          "name": "spender",
          "type": "address"
        }
      ],
      "name": "allowance",
      "outputs": [
        {
          "internalType": "uint256",
          "name": "",
          "type": "uint256"
        }
      ],
      "stateMutability": "view",
      "type": "function"
    },
    {
      "inputs": [
        {
          "internalType": "address",
          "name": "spender",
          "type": "address"
        },
        {
          "internalType": "uint256",
          "name": "amount",
          "type": "uint256"
        }
      ],
      "name": "approve",
      "outputs": [
        {
          "internalType": "bool",
          "name": "",
          "type": "bool"
        }
      ],
      "stateMutability": "nonpayable",
      "type": "function"
    },
    {
      "inputs": [
        {
          "internalType": "address",
          "name": "account",
          "type": "address"
        }
      ],
      "name": "balanceOf",
      "outputs": [
        {
          "internalType": "uint256",
          "name": "",
          "type": "uint256"
        }
      ],
      "stateMutability": "view",
      "type": "function"
    },
    {
      "inputs": [],
      "name": "decimals",
      "outputs": [
        {
          "internalType": "uint8",
          "name": "",
          "type": "uint8"
        }
      ],
      "stateMutability": "view",
      "type": "function"
    },
    {
      "inputs": [
        {
          "internalType": "address",
          "name": "spender",
          "type": "address"
        },
        {
          "internalType": "uint256",
          "name": "subtractedValue",
          "type": "uint256"
        }
      ],
      "name": "decreaseAllowance",
      "outputs": [
        {
          "internalType": "bool",
          "name": "",
          "type": "bool"
        }
      ],
      "stateMutability": "nonpayable",
      "type": "function"
    },
    {
      "inputs": [
        {
          "internalType": "address",
          "name": "spender",
          "type": "address"
        },
        {
          "internalType": "uint256",
          "name": "addedValue",
          "type": "uint256"
        }
      ],
      "name": "increaseAllowance",
      "outputs": [
        {
          "internalType": "bool",
          "name": "",
          "type": "bool"
        }
      ],
      "stateMutability": "nonpayable",
      "type": "function"
    },
    {
      "inputs": [
        {
          "internalType": "uint256",
          "name": "",
          "type": "uint256"
        }
      ],
      "name": "isTokenIdClimed",
      "outputs": [
        {
          "internalType": "bool",
          "name": "",
          "type": "bool"
        }
      ],
      "stateMutability": "view",
      "type": "function"
    },
    {
      "inputs": [
        {
          "internalType": "uint256",
          "name": "amount",
          "type": "uint256"
        }
      ],
      "name": "mint",
      "outputs": [],
      "stateMutability": "payable",
      "type": "function"
    },
    {
      "inputs": [],
      "name": "name",
      "outputs": [
        {
          "internalType": "string",
          "name": "",
          "type": "string"
        }
      ],
      "stateMutability": "view",
      "type": "function"
    },
    {
      "inputs": [],
      "name": "owner",
      "outputs": [
        {
          "internalType": "address",
          "name": "",
          "type": "address"
        }
      ],
      "stateMutability": "view",
      "type": "function"
    },
    {
      "inputs": [],
      "name": "renounceOwnership",
      "outputs": [],
      "stateMutability": "nonpayable",
      "type": "function"
    },
    {
      "inputs": [],
      "name": "symbol",
      "outputs": [
        {
          "internalType": "string",
          "name": "",
          "type": "string"
        }
      ],
      "stateMutability": "view",
      "type": "function"
    },
    {
      "inputs": [],
      "name": "totalSupply",
      "outputs": [
        {
          "internalType": "uint256",
          "name": "",
          "type": "uint256"
        }
      ],
      "stateMutability": "view",
      "type": "function"
    },
    {
      "inputs": [
        {
          "internalType": "address",
          "name": "to",
          "type": "address"
        },
        {
          "internalType": "uint256",
          "name": "amount",
          "type": "uint256"
        }
      ],
      "name": "transfer",
      "outputs": [
        {
          "internalType": "bool",
          "name": "",
          "type": "bool"
        }
      ],
      "stateMutability": "nonpayable",
      "type": "function"
    },
    {
      "inputs": [
        {
          "internalType": "address",
          "name": "from",
          "type": "address"
        },
        {
          "internalType": "address",
          "name": "to",
          "type": "address"
        },
        {
          "internalType": "uint256",
          "name": "amount",
          "type": "uint256"
        }
      ],
      "name": "transferFrom",
      "outputs": [
        {
          "internalType": "bool",
          "name": "",
          "type": "bool"
        }
      ],
      "stateMutability": "nonpayable",
      "type": "function"
    },
    {
      "inputs": [
        {
          "internalType": "address",
          "name": "newOwner",
          "type": "address"
        }
      ],
      "name": "transferOwnership",
      "outputs": [],
      "stateMutability": "nonpayable",
      "type": "function"
    },
    {
      "inputs": [],
      "name": "withdraw",
      "outputs": [],
      "stateMutability": "nonpayable",
      "type": "function"
    },
    {
      "stateMutability": "payable",
      "type": "receive"
    }
  ],
  "transactionHash": "0xb0d44dc9c1abe0db17ad61e0d9d2c745a75fea183d44848978d96a491c18de06",
  "args": [],
  "numDeployments": 1,
  "solcInputHash": "0e97f7cea2c3854cb5b6a50e7e9d062d",
  "bytecode": "0x60806040523480156200001157600080fd5b506040518060400160405280601081526020017f43727970746f2044657620546f6b656e000000000000000000000000000000008152506040518060400160405280600281526020017f4344000000000000000000000000000000000000000000000000000000000000815250816003908051906020019062000096929190620001a6565b508060049080519060200190620000af929190620001a6565b505050620000d2620000c6620000d860201b60201c565b620000e060201b60201c565b620002bb565b600033905090565b6000600560009054906101000a900473ffffffffffffffffffffffffffffffffffffffff16905081600560006101000a81548173ffffffffffffffffffffffffffffffffffffffff021916908373ffffffffffffffffffffffffffffffffffffffff1602179055508173ffffffffffffffffffffffffffffffffffffffff168173ffffffffffffffffffffffffffffffffffffffff167f8be0079c531659141344cd1fd0a4f28419497f9722a3daafe3b4186f6b6457e060405160405180910390a35050565b828054620001b49062000256565b90600052602060002090601f016020900481019282620001d8576000855562000224565b82601f10620001f357805160ff191683800117855562000224565b8280016001018555821562000224579182015b828111156200022357825182559160200191906001019062000206565b5b50905062000233919062000237565b5090565b5b808211156200025257600081600090555060010162000238565b5090565b600060028204905060018216806200026f57607f821691505b602082108114156200028657620002856200028c565b5b50919050565b7f4e487b7100000000000000000000000000000000000000000000000000000000600052602260045260246000fd5b611eb480620002cb6000396000f3fe6080604052600436106101235760003560e01c80638da5cb5b116100a0578063d2d8cb6711610064578063d2d8cb67146103e6578063dd62ed3e14610411578063dd6620f41461044e578063eaa1fecf14610479578063f2fde38b146104b65761012a565b80638da5cb5b146102fa57806395d89b4114610325578063a0712d6814610350578063a457c2d71461036c578063a9059cbb146103a95761012a565b806339509351116100e757806339509351146102275780633ccfd60b14610264578063617d11261461027b57806370a08231146102a6578063715018a6146102e35761012a565b806306fdde031461012c578063095ea7b31461015757806318160ddd1461019457806323b872dd146101bf578063313ce567146101fc5761012a565b3661012a57005b005b34801561013857600080fd5b506101416104df565b60405161014e919061169c565b60405180910390f35b34801561016357600080fd5b5061017e60048036038101906101799190611362565b610571565b60405161018b9190611681565b60405180910390f35b3480156101a057600080fd5b506101a9610594565b6040516101b6919061187e565b60405180910390f35b3480156101cb57600080fd5b506101e660048036038101906101e1919061130f565b61059e565b6040516101f39190611681565b60405180910390f35b34801561020857600080fd5b506102116105cd565b60405161021e9190611899565b60405180910390f35b34801561023357600080fd5b5061024e60048036038101906102499190611362565b6105d6565b60405161025b9190611681565b60405180910390f35b34801561027057600080fd5b5061027961060d565b005b34801561028757600080fd5b5061029061071a565b60405161029d919061187e565b60405180910390f35b3480156102b257600080fd5b506102cd60048036038101906102c891906112a2565b610728565b6040516102da919061187e565b60405180910390f35b3480156102ef57600080fd5b506102f8610770565b005b34801561030657600080fd5b5061030f610784565b60405161031c9190611666565b60405180910390f35b34801561033157600080fd5b5061033a6107ae565b604051610347919061169c565b60405180910390f35b61036a600480360381019061036591906113a2565b610840565b005b34801561037857600080fd5b50610393600480360381019061038e9190611362565b610920565b6040516103a09190611681565b60405180910390f35b3480156103b557600080fd5b506103d060048036038101906103cb9190611362565b610997565b6040516103dd9190611681565b60405180910390f35b3480156103f257600080fd5b506103fb6109ba565b604051610408919061187e565b60405180910390f35b34801561041d57600080fd5b50610438600480360381019061043391906112cf565b6109c5565b604051610445919061187e565b60405180910390f35b34801561045a57600080fd5b50610463610a4c565b604051610470919061187e565b60405180910390f35b34801561048557600080fd5b506104a0600480360381019061049b91906113a2565b610a58565b6040516104ad9190611681565b60405180910390f35b3480156104c257600080fd5b506104dd60048036038101906104d891906112a2565b610a78565b005b6060600380546104ee90611a13565b80601f016020809104026020016040519081016040528092919081815260200182805461051a90611a13565b80156105675780601f1061053c57610100808354040283529160200191610567565b820191906000526020600020905b81548152906001019060200180831161054a57829003601f168201915b5050505050905090565b60008061057c610afc565b9050610589818585610b04565b600191505092915050565b6000600254905090565b6000806105a9610afc565b90506105b6858285610ccf565b6105c1858585610d5b565b60019150509392505050565b60006012905090565b6000806105e1610afc565b90506106028185856105f385896109c5565b6105fd91906118db565b610b04565b600191505092915050565b610615610fd3565b60004790506000811161065d576040517f08c379a0000000000000000000000000000000000000000000000000000000008152600401610654906117be565b60405180910390fd5b6000610667610784565b905060008173ffffffffffffffffffffffffffffffffffffffff168360405161068f90611651565b60006040518083038185875af1925050503d80600081146106cc576040519150601f19603f3d011682016040523d82523d6000602084013e6106d1565b606091505b5050905080610715576040517f08c379a000000000000000000000000000000000000000000000000000000000815260040161070c9061175e565b60405180910390fd5b505050565b69021e19e0c9bab240000081565b60008060008373ffffffffffffffffffffffffffffffffffffffff1673ffffffffffffffffffffffffffffffffffffffff168152602001908152602001600020549050919050565b610778610fd3565b6107826000611051565b565b6000600560009054906101000a900473ffffffffffffffffffffffffffffffffffffffff16905090565b6060600480546107bd90611a13565b80601f01602080910402602001604051908101604052809291908181526020018280546107e990611a13565b80156108365780601f1061080b57610100808354040283529160200191610836565b820191906000526020600020905b81548152906001019060200180831161081957829003601f168201915b5050505050905090565b60008166038d7ea4c680006108559190611931565b90508034101561089a576040517f08c379a00000000000000000000000000000000000000000000000000000000081526004016108919061177e565b60405180910390fd5b6000670de0b6b3a7640000836108b09190611931565b905069021e19e0c9bab2400000816108c6610594565b6108d091906118db565b1115610911576040517f08c379a0000000000000000000000000000000000000000000000000000000008152600401610908906117de565b60405180910390fd5b61091b3382611117565b505050565b60008061092b610afc565b9050600061093982866109c5565b90508381101561097e576040517f08c379a00000000000000000000000000000000000000000000000000000000081526004016109759061183e565b60405180910390fd5b61098b8286868403610b04565b60019250505092915050565b6000806109a2610afc565b90506109af818585610d5b565b600191505092915050565b66038d7ea4c6800081565b6000600160008473ffffffffffffffffffffffffffffffffffffffff1673ffffffffffffffffffffffffffffffffffffffff16815260200190815260200160002060008373ffffffffffffffffffffffffffffffffffffffff1673ffffffffffffffffffffffffffffffffffffffff16815260200190815260200160002054905092915050565b678ac7230489e8000081565b60066020528060005260406000206000915054906101000a900460ff1681565b610a80610fd3565b600073ffffffffffffffffffffffffffffffffffffffff168173ffffffffffffffffffffffffffffffffffffffff161415610af0576040517f08c379a0000000000000000000000000000000000000000000000000000000008152600401610ae7906116de565b60405180910390fd5b610af981611051565b50565b600033905090565b600073ffffffffffffffffffffffffffffffffffffffff168373ffffffffffffffffffffffffffffffffffffffff161415610b74576040517f08c379a0000000000000000000000000000000000000000000000000000000008152600401610b6b9061181e565b60405180910390fd5b600073ffffffffffffffffffffffffffffffffffffffff168273ffffffffffffffffffffffffffffffffffffffff161415610be4576040517f08c379a0000000000000000000000000000000000000000000000000000000008152600401610bdb906116fe565b60405180910390fd5b80600160008573ffffffffffffffffffffffffffffffffffffffff1673ffffffffffffffffffffffffffffffffffffffff16815260200190815260200160002060008473ffffffffffffffffffffffffffffffffffffffff1673ffffffffffffffffffffffffffffffffffffffff168152602001908152602001600020819055508173ffffffffffffffffffffffffffffffffffffffff168373ffffffffffffffffffffffffffffffffffffffff167f8c5be1e5ebec7d5bd14f71427d1e84f3dd0314c0f7b2291e5b200ac8c7c3b92583604051610cc2919061187e565b60405180910390a3505050565b6000610cdb84846109c5565b90507fffffffffffffffffffffffffffffffffffffffffffffffffffffffffffffffff8114610d555781811015610d47576040517f08c379a0000000000000000000000000000000000000000000000000000000008152600401610d3e9061171e565b60405180910390fd5b610d548484848403610b04565b5b50505050565b600073ffffffffffffffffffffffffffffffffffffffff168373ffffffffffffffffffffffffffffffffffffffff161415610dcb576040517f08c379a0000000000000000000000000000000000000000000000000000000008152600401610dc2906117fe565b60405180910390fd5b600073ffffffffffffffffffffffffffffffffffffffff168273ffffffffffffffffffffffffffffffffffffffff161415610e3b576040517f08c379a0000000000000000000000000000000000000000000000000000000008152600401610e32906116be565b60405180910390fd5b610e4683838361126e565b60008060008573ffffffffffffffffffffffffffffffffffffffff1673ffffffffffffffffffffffffffffffffffffffff16815260200190815260200160002054905081811015610ecc576040517f08c379a0000000000000000000000000000000000000000000000000000000008152600401610ec39061173e565b60405180910390fd5b8181036000808673ffffffffffffffffffffffffffffffffffffffff1673ffffffffffffffffffffffffffffffffffffffff16815260200190815260200160002081905550816000808573ffffffffffffffffffffffffffffffffffffffff1673ffffffffffffffffffffffffffffffffffffffff168152602001908152602001600020600082825401925050819055508273ffffffffffffffffffffffffffffffffffffffff168473ffffffffffffffffffffffffffffffffffffffff167fddf252ad1be2c89b69c2b068fc378daa952ba7f163c4a11628f55a4df523b3ef84604051610fba919061187e565b60405180910390a3610fcd848484611273565b50505050565b610fdb610afc565b73ffffffffffffffffffffffffffffffffffffffff16610ff9610784565b73ffffffffffffffffffffffffffffffffffffffff161461104f576040517f08c379a00000000000000000000000000000000000000000000000000000000081526004016110469061179e565b60405180910390fd5b565b6000600560009054906101000a900473ffffffffffffffffffffffffffffffffffffffff16905081600560006101000a81548173ffffffffffffffffffffffffffffffffffffffff021916908373ffffffffffffffffffffffffffffffffffffffff1602179055508173ffffffffffffffffffffffffffffffffffffffff168173ffffffffffffffffffffffffffffffffffffffff167f8be0079c531659141344cd1fd0a4f28419497f9722a3daafe3b4186f6b6457e060405160405180910390a35050565b600073ffffffffffffffffffffffffffffffffffffffff168273ffffffffffffffffffffffffffffffffffffffff161415611187576040517f08c379a000000000000000000000000000000000000000000000000000000000815260040161117e9061185e565b60405180910390fd5b6111936000838361126e565b80600260008282546111a591906118db565b92505081905550806000808473ffffffffffffffffffffffffffffffffffffffff1673ffffffffffffffffffffffffffffffffffffffff168152602001908152602001600020600082825401925050819055508173ffffffffffffffffffffffffffffffffffffffff16600073ffffffffffffffffffffffffffffffffffffffff167fddf252ad1be2c89b69c2b068fc378daa952ba7f163c4a11628f55a4df523b3ef83604051611256919061187e565b60405180910390a361126a60008383611273565b5050565b505050565b505050565b60008135905061128781611e50565b92915050565b60008135905061129c81611e67565b92915050565b6000602082840312156112b8576112b7611aa3565b5b60006112c684828501611278565b91505092915050565b600080604083850312156112e6576112e5611aa3565b5b60006112f485828601611278565b925050602061130585828601611278565b9150509250929050565b60008060006060848603121561132857611327611aa3565b5b600061133686828701611278565b935050602061134786828701611278565b92505060406113588682870161128d565b9150509250925092565b6000806040838503121561137957611378611aa3565b5b600061138785828601611278565b92505060206113988582860161128d565b9150509250929050565b6000602082840312156113b8576113b7611aa3565b5b60006113c68482850161128d565b91505092915050565b6113d88161198b565b82525050565b6113e78161199d565b82525050565b60006113f8826118b4565b61140281856118ca565b93506114128185602086016119e0565b61141b81611aa8565b840191505092915050565b60006114336023836118ca565b915061143e82611ab9565b604082019050919050565b60006114566026836118ca565b915061146182611b08565b604082019050919050565b60006114796022836118ca565b915061148482611b57565b604082019050919050565b600061149c601d836118ca565b91506114a782611ba6565b602082019050919050565b60006114bf6026836118ca565b91506114ca82611bcf565b604082019050919050565b60006114e26014836118ca565b91506114ed82611c1e565b602082019050919050565b60006115056017836118ca565b915061151082611c47565b602082019050919050565b60006115286020836118ca565b915061153382611c70565b602082019050919050565b600061154b602b836118ca565b915061155682611c99565b604082019050919050565b600061156e6027836118ca565b915061157982611ce8565b604082019050919050565b60006115916025836118ca565b915061159c82611d37565b604082019050919050565b60006115b46000836118bf565b91506115bf82611d86565b600082019050919050565b60006115d76024836118ca565b91506115e282611d89565b604082019050919050565b60006115fa6025836118ca565b915061160582611dd8565b604082019050919050565b600061161d601f836118ca565b915061162882611e27565b602082019050919050565b61163c816119c9565b82525050565b61164b816119d3565b82525050565b600061165c826115a7565b9150819050919050565b600060208201905061167b60008301846113cf565b92915050565b600060208201905061169660008301846113de565b92915050565b600060208201905081810360008301526116b681846113ed565b905092915050565b600060208201905081810360008301526116d781611426565b9050919050565b600060208201905081810360008301526116f781611449565b9050919050565b600060208201905081810360008301526117178161146c565b9050919050565b600060208201905081810360008301526117378161148f565b9050919050565b60006020820190508181036000830152611757816114b2565b9050919050565b60006020820190508181036000830152611777816114d5565b9050919050565b60006020820190508181036000830152611797816114f8565b9050919050565b600060208201905081810360008301526117b78161151b565b9050919050565b600060208201905081810360008301526117d78161153e565b9050919050565b600060208201905081810360008301526117f781611561565b9050919050565b6000602082019050818103600083015261181781611584565b9050919050565b60006020820190508181036000830152611837816115ca565b9050919050565b60006020820190508181036000830152611857816115ed565b9050919050565b6000602082019050818103600083015261187781611610565b9050919050565b60006020820190506118936000830184611633565b92915050565b60006020820190506118ae6000830184611642565b92915050565b600081519050919050565b600081905092915050565b600082825260208201905092915050565b60006118e6826119c9565b91506118f1836119c9565b9250827fffffffffffffffffffffffffffffffffffffffffffffffffffffffffffffffff0382111561192657611925611a45565b5b828201905092915050565b600061193c826119c9565b9150611947836119c9565b9250817fffffffffffffffffffffffffffffffffffffffffffffffffffffffffffffffff04831182151516156119805761197f611a45565b5b828202905092915050565b6000611996826119a9565b9050919050565b60008115159050919050565b600073ffffffffffffffffffffffffffffffffffffffff82169050919050565b6000819050919050565b600060ff82169050919050565b60005b838110156119fe5780820151818401526020810190506119e3565b83811115611a0d576000848401525b50505050565b60006002820490506001821680611a2b57607f821691505b60208210811415611a3f57611a3e611a74565b5b50919050565b7f4e487b7100000000000000000000000000000000000000000000000000000000600052601160045260246000fd5b7f4e487b7100000000000000000000000000000000000000000000000000000000600052602260045260246000fd5b600080fd5b6000601f19601f8301169050919050565b7f45524332303a207472616e7366657220746f20746865207a65726f206164647260008201527f6573730000000000000000000000000000000000000000000000000000000000602082015250565b7f4f776e61626c653a206e6577206f776e657220697320746865207a65726f206160008201527f6464726573730000000000000000000000000000000000000000000000000000602082015250565b7f45524332303a20617070726f766520746f20746865207a65726f20616464726560008201527f7373000000000000000000000000000000000000000000000000000000000000602082015250565b7f45524332303a20696e73756666696369656e7420616c6c6f77616e6365000000600082015250565b7f45524332303a207472616e7366657220616d6f756e742065786365656473206260008201527f616c616e63650000000000000000000000000000000000000000000000000000602082015250565b7f4661696c656420746f2073656e64204574686572000000000000000000000000600082015250565b7f45746865722053656e6420697320696e636f7272656374000000000000000000600082015250565b7f4f776e61626c653a2063616c6c6572206973206e6f7420746865206f776e6572600082015250565b7f4e6f7468696e6720746f2077697468647261772c20636f6e747261637420626160008201527f6c616e636520656d707479000000000000000000000000000000000000000000602082015250565b7f4578636565647320746865206d617820746f74616c20737570706c792061766160008201527f696c61626c652e00000000000000000000000000000000000000000000000000602082015250565b7f45524332303a207472616e736665722066726f6d20746865207a65726f20616460008201527f6472657373000000000000000000000000000000000000000000000000000000602082015250565b50565b7f45524332303a20617070726f76652066726f6d20746865207a65726f2061646460008201527f7265737300000000000000000000000000000000000000000000000000000000602082015250565b7f45524332303a2064656372656173656420616c6c6f77616e63652062656c6f7760008201527f207a65726f000000000000000000000000000000000000000000000000000000602082015250565b7f45524332303a206d696e7420746f20746865207a65726f206164647265737300600082015250565b611e598161198b565b8114611e6457600080fd5b50565b611e70816119c9565b8114611e7b57600080fd5b5056fea264697066735822122025a33c0b8f06d27d3b556eb30c12267ee4561012b7aefeeec8990169c3bcc1c864736f6c63430008070033",
  "devdoc": {
    "kind": "dev",
    "methods": {
      "allowance(address,address)": {
        "details": "See {IERC20-allowance}."
      },
      "approve(address,uint256)": {
        "details": "See {IERC20-approve}. NOTE: If `amount` is the maximum `uint256`, the allowance is not updated on `transferFrom`. This is semantically equivalent to an infinite approval. Requirements: - `spender` cannot be the zero address."
      },
      "balanceOf(address)": {
        "details": "See {IERC20-balanceOf}."
      },
      "decimals()": {
        "details": "Returns the number of decimals used to get its user representation. For example, if `decimals` equals `2`, a balance of `505` tokens should be displayed to a user as `5.05` (`505 / 10 ** 2`). Tokens usually opt for a value of 18, imitating the relationship between Ether and Wei. This is the value {ERC20} uses, unless this function is overridden; NOTE: This information is only used for _display_ purposes: it in no way affects any of the arithmetic of the contract, including {IERC20-balanceOf} and {IERC20-transfer}."
      },
      "decreaseAllowance(address,uint256)": {
        "details": "Atomically decreases the allowance granted to `spender` by the caller. This is an alternative to {approve} that can be used as a mitigation for problems described in {IERC20-approve}. Emits an {Approval} event indicating the updated allowance. Requirements: - `spender` cannot be the zero address. - `spender` must have allowance for the caller of at least `subtractedValue`."
      },
      "increaseAllowance(address,uint256)": {
        "details": "Atomically increases the allowance granted to `spender` by the caller. This is an alternative to {approve} that can be used as a mitigation for problems described in {IERC20-approve}. Emits an {Approval} event indicating the updated allowance. Requirements: - `spender` cannot be the zero address."
      },
      "name()": {
        "details": "Returns the name of the token."
      },
      "owner()": {
        "details": "Returns the address of the current owner."
      },
      "renounceOwnership()": {
        "details": "Leaves the contract without owner. It will not be possible to call `onlyOwner` functions anymore. Can only be called by the current owner. NOTE: Renouncing ownership will leave the contract without an owner, thereby removing any functionality that is only available to the owner."
      },
      "symbol()": {
        "details": "Returns the symbol of the token, usually a shorter version of the name."
      },
      "totalSupply()": {
        "details": "See {IERC20-totalSupply}."
      },
      "transfer(address,uint256)": {
        "details": "See {IERC20-transfer}. Requirements: - `to` cannot be the zero address. - the caller must have a balance of at least `amount`."
      },
      "transferFrom(address,address,uint256)": {
        "details": "See {IERC20-transferFrom}. Emits an {Approval} event indicating the updated allowance. This is not required by the EIP. See the note at the beginning of {ERC20}. NOTE: Does not update the allowance if the current allowance is the maximum `uint256`. Requirements: - `from` and `to` cannot be the zero address. - `from` must have a balance of at least `amount`. - the caller must have allowance for ``from``'s tokens of at least `amount`."
      },
      "transferOwnership(address)": {
        "details": "Transfers ownership of the contract to a new account (`newOwner`). Can only be called by the current owner."
      }
    },
    "version": 1
  },
  "userdoc": {
    "kind": "user",
    "methods": {},
    "version": 1
  },
  "storageLayout": {
    "storage": [
      {
        "astId": 128,
        "contract": "contracts/CryptoDevToken.sol:CryptoDevToken",
        "label": "_balances",
        "offset": 0,
        "slot": "0",
        "type": "t_mapping(t_address,t_uint256)"
      },
      {
        "astId": 134,
        "contract": "contracts/CryptoDevToken.sol:CryptoDevToken",
        "label": "_allowances",
        "offset": 0,
        "slot": "1",
        "type": "t_mapping(t_address,t_mapping(t_address,t_uint256))"
      },
      {
        "astId": 136,
        "contract": "contracts/CryptoDevToken.sol:CryptoDevToken",
        "label": "_totalSupply",
        "offset": 0,
        "slot": "2",
        "type": "t_uint256"
      },
      {
        "astId": 138,
        "contract": "contracts/CryptoDevToken.sol:CryptoDevToken",
        "label": "_name",
        "offset": 0,
        "slot": "3",
        "type": "t_string_storage"
      },
      {
        "astId": 140,
        "contract": "contracts/CryptoDevToken.sol:CryptoDevToken",
        "label": "_symbol",
        "offset": 0,
        "slot": "4",
        "type": "t_string_storage"
      },
      {
        "astId": 7,
        "contract": "contracts/CryptoDevToken.sol:CryptoDevToken",
        "label": "_owner",
        "offset": 0,
        "slot": "5",
        "type": "t_address"
      },
      {
        "astId": 853,
        "contract": "contracts/CryptoDevToken.sol:CryptoDevToken",
        "label": "isTokenIdClimed",
        "offset": 0,
        "slot": "6",
        "type": "t_mapping(t_uint256,t_bool)"
      }
    ],
    "types": {
      "t_address": {
        "encoding": "inplace",
        "label": "address",
        "numberOfBytes": "20"
      },
      "t_bool": {
        "encoding": "inplace",
        "label": "bool",
        "numberOfBytes": "1"
      },
      "t_mapping(t_address,t_mapping(t_address,t_uint256))": {
        "encoding": "mapping",
        "key": "t_address",
        "label": "mapping(address => mapping(address => uint256))",
        "numberOfBytes": "32",
        "value": "t_mapping(t_address,t_uint256)"
      },
      "t_mapping(t_address,t_uint256)": {
        "encoding": "mapping",
        "key": "t_address",
        "label": "mapping(address => uint256)",
        "numberOfBytes": "32",
        "value": "t_uint256"
      },
      "t_mapping(t_uint256,t_bool)": {
        "encoding": "mapping",
        "key": "t_uint256",
        "label": "mapping(uint256 => bool)",
        "numberOfBytes": "32",
        "value": "t_bool"
      },
      "t_string_storage": {
        "encoding": "bytes",
        "label": "string",
        "numberOfBytes": "32"
      },
      "t_uint256": {
        "encoding": "inplace",
        "label": "uint256",
        "numberOfBytes": "32"
      }
    }
  }
}